:020000040800F2
:10000000202D002001010008BB2D0008592C0008FC
:10001000B92D0008ED1800089B3000080000000012
:10002000000000000000000000000000BF2D0008DC
:100030003319000800000000BD2D0008C12D000884
:100040001B0100081B0100081B0100081B01000820
:100050001B0100081B0100081B0100081B01000810
:100060001B0100081B0100081B010008F118000813
:100070001B0100081B0100081B0100081B010008F0
:100080001B0100081B0100081B0100081B010008E0
:100090001B0100081B0100081B0100081B010008D0
:1000A0001B0100081B0100081B0100081B010008C0
:1000B0001B0100081B0100081B0100081B010008B0
:1000C0001B0100081B0100081B0100081B010008A0
:1000D0001B0100081B0100081B0100081B01000890
:1000E0001B0100081B0100081B010008DFF80CD0F1
:1000F00001F0DCFA004800474D330008202D0020B5
:100100000648804706480047FEE7FEE7FEE7FEE7B1
:10011000FEE7FEE7FEE7FEE7FEE7FEE73D2E00080E
:10012000ED0000082DE9F04F4FF0000C4FF00003F8
:1001300001EB9C5EBEF90250BEF900400EF5806EE8
:10014000BEF90290BEF900800EF5806EBEF9027015
:10015000BEF900600EF5806EBEF902B0BEF900A0D7
:100160000EF5806ED044D944A8EB4A0AA9EB4B0B9C
:100170004FEAA4044FEAA50504EBA60405EBA70586
:10018000A4EB6606A5EB670704EBA80405EBA9053D
:10019000A4EB6808A5EB690906EBAB06A7EBAA0779
:1001A000A6EB6B0B07EB6A0A458020F8044B4780EF
:1001B00020F8046BA0F8029020F8048BA0F802A0AD
:1001C00020F804BB03F1010393FAA3FCB3F5807F8D
:1001D000AED1A0EB82014FF0100312090FF23410E0
:1001E00000F1000006B403EB430C6144A2F5803239
:1001F00002EB8332B1F90250B1F90040A1EB0301E7
:10020000B0F902B0B0F900A000F10400A5EB040EB3
:100210000EFB0BFC0AEB4B0E05FB0ACB04FB0ECAD4
:10022000B1F90250B1F90040A1EB0301B0F902901D
:10023000B0F9008000F10400A5EB040E0EFB09FCF0
:1002400008EB490E05FB08C904FB0EC8B1F90250C2
:10025000B1F90040A1EB0301B0F90270B0F9006000
:1002600000F10400A5EB040E0EFB07FC06EB470EA5
:1002700005FB06C704FB0EC6B1F90250B1F90040F8
:1002800001F10001D044D944A8EB4A0AA9EB4B0B79
:100290004FEAA4044FEAA50504EB264405EB2745E5
:1002A000A4EBE636A5EBE73704EB284405EB29453C
:1002B000A4EBE838A5EBE93906EB2B46A7EB2A4778
:1002C000A6EBEB3B07EBEA3A4D800C8019444F80DC
:1002D0000E801944A1F80290A1F800801944A1F8F9
:1002E00002A021F804BBB2F5803283DA03EB430CA1
:1002F0006144A2F101025FEA024E18BFA0EB0C00BC
:100300007FF476AF06BC4FEA830392087FF46AAFAE
:10031000BDE8F08F004000000040000000400000F9
:100320005DDD213BA3227E180000412D7EA5412DDD
:100330000000412D00C000405DDD82E75DDD213B16
:100340007EA5412D0040000000400000004000005C
:10035000AA2A94126B39460649327C0CA8118E23C6
:1003600049327C0CA3227E1821F77931AA2A9412F3
:10037000A8118E235DDD213BA3227E180000412DB4
:1003800095C6B13F461A2B1E58EE3735BEB4C53E52
:10039000A8118E235DDD213B63A97138DF089A28FF
:1003A000B7CDC53E7EA5412D0000412D00C00040C7
:1003B00063A92B1E21F77931BEB4C53EBEB47C0CB7
:1003C00058EE373561AC213B95C6BAF9BAE57138BC
:1003D0003BA737355DDD82E75DDD213B7EA5412D05
:1003E00021F766D756D53F3D3BA78E23A811C9CA32
:1003F000B7CDC53E61AC7E18AA2AC1C295C6B13F31
:10040000BEB47C0C00400000004000000040000032
:100410001E3BB504693E9201C83C2403EB356409D8
:10042000C83C24036B3946066C30060E1E3BB504EF
:10043000EB356409AA2A94126B39460649327C0CC2
:10044000AE240917AF37D607882E8D0F7E1E5D1B91
:10045000EB356409AA2A941224188C1F1E34F10A61
:10046000B3269015A8118E2349327C0CA3227E1846
:10047000140B60276C30060E7E1E5D1B7104FB2A78
:10048000882E8D0F461A2B1EC7FD5A2E9D2C121139
:10049000FE15E72021F77931AA2A9412A8118E239C
:1004A00087F05334B2281314480D202602EAE536AB
:1004B000B3269015DF089A289CE32B39AE24091740
:1004C0007104FB2A5DDD213BA3227E180000412D33
:1004D0004ED7C53C9320EF198FFB6C2F78D1153E7A
:1004E0007E1E5D1B21F77931E2CB0F3F641CC61CD9
:1004F000B8F2683395C6B13F461A2B1E58EE373511
:1005000097C1FB3F24188C1F02EAE536F0BCEC3F94
:10051000FE15E720BAE57138A6B8853FD5133D2210
:1005200082E1DB39BEB4C53EA8118E235DDD213BDF
:1005300040B1AF3D790FDA244DD9423C2EAE423C5A
:10054000480D202656D53F3D8EAB823A140B6027CE
:1005500078D1153E63A97138DF089A28B7CDC53E1A
:10056000B1A71236A906CE2915CA4F3F78A668331F
:100570007104FB2A95C6B13FBCA576303902212C07
:1005800038C3EC3F7EA5412D0000412D00C0004046
:10059000BCA5CE29C7FD5A2EF0BCEC3F78A620267C
:1005A0008FFB6C2F09BAB13FB1A73D2257F97630C6
:1005B0004DB74F3F63A92B1E21F77931BEB4C53E1D
:1005C0008EABEF19ECF474325EB2153E2EAE901580
:1005D000B8F268332DB03F3D40B1121187F053346B
:1005E0002EAE423CBEB47C0C58EE373561AC213B9C
:1005F000A6B8D6072BEC1236C8AADB39F0BC240308
:1006000002EAE53663A9713897C16EFEDCE7B037C0
:1006100034A8E53695C6BAF9BAE571383BA737353F
:10062000E2CB0FF59CE32B3978A6683378D173F0D1
:1006300082E1DB39EDA579314ED7EDEB6DDF823A02
:1006400099A56C2F5DDD82E75DDD213B7EA5412D07
:100650009CE33AE352DBB63B99A5FB2A02EA19DF99
:100660004DD9423CEDA59A2887F026DB4ED7C53CF4
:1006700078A6202621F766D756D53F3D3BA78E2387
:10068000C7FDDFD363D3AF3D34A8E720710494D016
:1006900078D1153E63A92B1E140B8CCD94CF723EDE
:1006A000C8AA5D1BA811C9CAB7CDC53E61AC7E18EA
:1006B000241850C8E2CB0F3F2EAE90157E1E25C6E3
:1006C00015CA4F3F2DB09412AE244AC451C8853F7D
:1006D0005EB28D0FAA2AC1C295C6B13FBEB47C0CD2
:1006E0006C308EC1E2C4D43F4DB76409EB35B1C064
:1006F00038C3EC3F09BA46061E3B2CC097C1FB3FEE
:10070000F0BC240300400000004000000040000056
:10071000D03E2E019B3F6500363FC9009A3D5B02EB
:10072000363FC900693E92015F3C8803D03E2E01EE
:100730009A3D5B021E3BB504693E9201C83C24030E
:10074000D939E205023EF701F43BED038E380E077E
:100750009A3D5B021E3BB5043F373908313DC0026C
:10076000463A7E05EB356409C83C24036B394606DE
:1007700092348E0A5F3C88038E380E073433B70BF1
:10078000F43BED03AF37D607D231DF0C8A3B51047F
:10079000CE369D086C30060E1E3BB504EB35640961
:1007A000022F2B0FB23A1A0505352B0A932D501044
:1007B000463A7E051E34F10A212C7311D939E2051F
:1007C0003433B70BAA2A94126B39460649327C0C93
:1007D0003129B413FD38AA065B31410DB327D21479
:1007E0008E380E076C30060E3226EE151F38720753
:1007F0007B2FCA0EAE240917AF37D607882E8D0F70
:10080000262321183F373908932D50109C21371982
:10081000CE369D089D2C12110E204B1A5D36010913
:10082000A42BD3117E1E5D1BEB356409AA2A9412FA
:10083000EB1C6C1C7835C709AF295413561B791D66
:1008400005352B0AB2281314BE19841E92348E0A61
:10085000B327D21424188C1F1E34F10AB326901526
:1008600088169120A933540BB1254C16EA14932114
:100870003433B70BAE2409174A139222BF321A0C35
:10088000A923C417A8118E2349327C0CA3227E18F9
:1008900005108824D231DF0C9C213719610E7E258A
:1008A0005B31410D9320EF19BB0C7126E430A40D90
:1008B000891FA71A140B60276C30060E7E1E5D1B65
:1008C0006D094C28F42F680E721D121CC4073529BF
:1008D0007B2FCA0E641CC61C1B061A2A022F2B0F64
:1008E000561B791D7104FB2A882E8D0F461A2B1E6C
:1008F000C702D82B0E2EEE0F3519DC1E1C01B22CB0
:10090000932D501024188C1F72FF882D182DB110B4
:1009100011173A20C7FD5A2E9D2C1211FE15E72003
:100920001DFC282F212C7311EA14932173FAF22F46
:10093000A42BD311D5133D22CAF8B830282B34127A
:10094000BF12E72221F77931AA2A9412A8118E2327
:1009500079F536322D2AF41291103524D2F3EF3284
:10096000AF295413790FDA242CF2A3333129B413AD
:10097000610E7E2587F05334B2281314480D2026CB
:10098000E3EEFF34332873142E0CC12641EDA53558
:10099000B327D214140B6027A1EB48363327311547
:1009A000FA09FE2702EAE536B3269015DF089A28F1
:1009B00065E87E373226EE15C4073529CBE61238B6
:1009C000B1254C16A906CE2932E5A1382F25AB1644
:1009D0008D05652A9CE32B39AE2409177104FB2A87
:1009E00008E2B0392B24661755038F2B77E0303A95
:1009F000A923C4173902212CE9DEAB3A262321189A
:100A00001C01B22C5DDD213BA3227E180000412D8C
:100A1000D5DB923B1F22DB18E4FECF2D4FDAFD3BE6
:100A20009C213719C7FD5A2ECDD8643C1721931944
:100A3000ABFCE42E4ED7C53C9320EF198FFB6C2FF7
:100A4000D3D5213D0E204B1A73FAF22F5CD4783D9A
:100A5000891FA71A57F97630E8D2C93D041F021B37
:100A60003CF8F93078D1153E7E1E5D1B21F77931B7
:100A70000CD05C3EF81DB81B06F6F831A5CE9D3EA5
:100A8000721D121CECF4743241CDD83EEB1C6C1C70
:100A9000D2F3EF32E2CB0F3F641CC61CB8F26833CE
:100AA00088CA403FDD1B201D9FF1DF3332C96B3FF9
:100AB000561B791D87F05334E1C7913FCE1AD31DE1
:100AC0006FEFC63495C6B13F461A2B1E58EE373528
:100AD0004EC5CC3FBE19841E41EDA5350CC4E13F87
:100AE0003519DC1E2BEC1236CFC2F13FAD18341F86
:100AF00016EB7D3697C1FB3F24188C1F02EAE536C2
:100B000065C000409B17E31FEFE84B3738BFFF3F3E
:100B100011173A20DCE7B03711BEF83F8816912054
:100B2000CBE61238F0BCEC3FFE15E720BAE5713891
:100B3000D4BBDB3F74153D21AAE4CF38BFBAC43F14
:100B4000EA1493219CE32B39AFB9A73F5F14E82146
:100B50008EE28439A6B8853FD5133D2282E1DB3988
:100B6000A2B75D3F4A13922277E0303AA5B6303FF4
:100B7000BF12E7226DDF823AAFB5FD3E34123B2350
:100B800064DED33ABEB4C53EA8118E235DDD213BA1
:100B9000D5B3883E1D11E22357DC6D3BF2B2453ED2
:100BA0009110352452DBB63B15B2FC3D051088246C
:100BB0004FDAFD3B40B1AF3D790FDA244DD9423CCD
:100BC00071B05B3DED0E2C254DD8853CA9AF033DA2
:100BD000610E7E254ED7C53CE8AEA53CD40DCF2591
:100BE00051D6033D2EAE423C480D202656D53F3D02
:100BF0007BADDA3BBB0C71265CD4783DD0AC6D3B51
:100C00002E0CC12663D3AF3D2BACFA3AA10B1127B2
:100C10006DD2E33D8EAB823A140B602778D1153E3E
:100C2000F8AA063A870AAF2785D0453E6AAA8439D2
:100C3000FA09FE2794CF723EE3A9FD386D094C28CE
:100C4000A5CE9D3E63A97138DF089A28B7CDC53E71
:100C5000EBA8E1375208E728CCCCEB3E7BA84B371A
:100C6000C4073529E2CB0F3F12A8B13636078129D8
:100C7000FBCA303FB1A71236A906CE2915CA4F3F8D
:100C800057A76E351B061A2A32C96B3F05A7C63413
:100C90008D05652A51C8853FBBA61934FF04B02ACB
:100CA00072C79C3F78A668337104FB2A95C6B13F92
:100CB0003EA6B232E303452BBAC5C43F0BA6F831BA
:100CC00055038F2BE2C4D43FE0A53931C702D82B9E
:100CD0000CC4E13FBCA576303902212C38C3EC3F6F
:100CE000A1A5AF2FAA016A2C66C2F53F8DA5E42EFF
:100CF0001C01B22C97C1FB3F81A5152E8E00FA2C4A
:100D0000CAC0FF3F7EA5412D0000412D00C000401C
:100D100081A56A2C72FF882D38BFFF3F8DA58F2BD0
:100D2000E4FECF2D73BEFB3FA1A5B02A56FE152EC3
:100D3000B0BDF53FBCA5CE29C7FD5A2EF0BCEC3F97
:100D4000E0A5E72839FD9F2E32BCE13F0BA6FE2728
:100D5000ABFCE42E77BBD43F3EA611271DFC282F09
:100D6000BFBAC43F78A620268FFB6C2F09BAB13FCB
:100D7000BBA62C2501FBAF2F56B99C3F05A73524F8
:100D800073FAF22FA6B8853F57A73B23E5F9343015
:100D9000F8B76B3FB1A73D2257F976304DB74F3FBB
:100DA00012A83D21CAF8B830A5B6303F7BA83A203A
:100DB0003CF8F93000B60F3FEBA8341FAEF73931DD
:100DC0005EB5EB3E63A92B1E21F77931BEB4C53E5B
:100DD000E3A9201D93F6B93122B49D3E6AAA121CE4
:100DE00006F6F83188B3723EF8AA021B79F536325E
:100DF000F2B2453E8EABEF19ECF474325EB2153EA2
:100E00002BACDB185FF4B232CDB1E33DD0ACC417EC
:100E1000D2F3EF3240B1AF3D7BADAB1645F32C338F
:100E2000B5B0783D2EAE9015B8F268332DB03F3D89
:100E3000E8AE73142CF2A333A9AF033DA9AF54134A
:100E40009FF1DF3328AFC53C71B0341213F1193470
:100E5000A9AE853C40B1121187F053342EAE423C0E
:100E600015B2EE0FFBEF8D34B6ADFD3BF2B2CA0EFC
:100E70006FEFC63441ADB63BD5B3A40DE3EEFF34FE
:100E8000D0AC6D3BBEB47C0C58EE373561AC213B29
:100E9000AFB5540BCCED6E35F6ABD33AA5B62B0AF5
:100EA00041EDA5358EAB823AA2B70109B6ECDC352F
:100EB00029AB303AA6B8D6072BEC1236C8AADB39D4
:100EC000AFB9AA06A1EB48366AAA8439BFBA7E0533
:100ED00016EB7D360FAA2B39D4BB51048CEAB13600
:100EE000B7A9CF38F0BC240302EAE53663A971380C
:100EF00011BEF70178E9183712A9123838BFC900B6
:100F0000EFE84B37C5A8B03765C09BFF65E87E3773
:100F10007BA84B3797C16EFEDCE7B03734A8E536C7
:100F2000CFC240FD53E7E137F1A77D360CC413FC77
:100F3000CBE61238B1A712364EC5E6FA42E6423881
:100F400074A7A53595C6BAF9BAE571383BA7373508
:100F5000E1C78EF832E5A13805A7C63432C963F778
:100F6000AAE4CF38D3A6533488CA39F623E4FD382F
:100F7000A4A6DF33E2CB0FF59CE32B3978A66833C8
:100F800041CDE6F315E3583950A6EF32A5CEBFF2B6
:100F90008EE284392CA674320CD098F108E2B03974
:100FA0000BA6F83178D173F082E1DB39EDA5793108
:100FB000E8D24FEFFCE0063AD3A5F9305CD42DEE31
:100FC00077E0303ABCA57630D3D50CEDF2DF593A54
:100FD000A9A5F22F4ED7EDEB6DDF823A99A56C2FC4
:100FE000CDD8CFEAE9DEAB3A8DA5E42E4FDAB4E9ED
:100FF00064DED33A85A55A2ED5DB9AE8E1DDFA3ACC
:101000007FA5CF2D5DDD82E75DDD213B7EA5412DF6
:10101000E9DE6DE6DADC473B7FA5B22C77E059E5E7
:1010200057DC6D3B85A5212C08E248E4D5DB923BDB
:101030008DA58F2B9CE33AE352DBB63B99A5FB2AA7
:1010400032E52DE2D1DADA3BA9A5652ACBE624E127
:101050004FDAFD3BBCA5CE2965E81DE0CED9203C8A
:10106000D3A5352902EA19DF4DD9423CEDA59A28CE
:10107000A1EB18DECDD8643C0BA6FE2741ED19DDAF
:101080004DD8853C2CA66027E3EE1EDCCDD7A53CD1
:1010900050A6C12687F026DB4ED7C53C78A6202671
:1010A0002CF231DACFD6E43CA4A67E25D2F33FD988
:1010B00051D6033DD3A6DA2479F551D8D3D5213DB5
:1010C00005A7352421F766D756D53F3D3BA78E238C
:1010D000CAF87FD6D8D45B3D74A7E72273FA9BD5B4
:1010E0005CD4783DB1A73D221DFCBBD4DFD3933D3A
:1010F000F1A79321C7FDDFD363D3AF3D34A8E72029
:1011000072FF06D3E8D2C93D7BA83A201C0131D238
:101110006DD2E33DC5A88C1FC70261D1F2D1FC3D61
:1011200012A9DC1E710494D078D1153E63A92B1E40
:101130001B06CCCFFED02D3EB7A9791DC40707CF23
:1011400085D0453E0FAAC61C6D0947CE0CD05C3E2B
:101150006AAA121C140B8CCD94CF723EC8AA5D1BD8
:10116000BB0CD4CC1CCF883E29ABA71A610E21CC76
:10117000A5CE9D3E8EABEF19051073CB2ECEB13EA2
:10118000F6AB3719A811C9CAB7CDC53E61AC7E18F8
:101190004A1324CA41CDD83ED0ACC417EA1483C93F
:1011A000CCCCEB3E41AD09178816E8C857CCFD3EC4
:1011B000B6AD4C16241850C8E2CB0F3F2EAE90159A
:1011C000BE19BEC76ECB203FA9AED214561B31C785
:1011D000FBCA303F28AF1314EB1CA8C688CA403F97
:1011E000A9AF54137E1E25C615CA4F3F2DB09412C9
:1011F0000E20A7C5A3C95D3FB5B0D3119C212DC555
:1012000032C96B3F40B112112623B9C4C1C8783F1F
:10121000CDB15010AE244AC451C8853F5EB28D0F87
:101220003226E0C3E1C7913FF2B2CA0EB3277BC3B7
:1012300072C79C3F88B3060E31291CC303C7A73F62
:1012400022B4410DAA2AC1C295C6B13FBEB47C0CDE
:10125000212C6DC227C6BB3F5EB5B70B932D1DC2B7
:10126000BAC5C43F00B6F10A022FD3C14EC5CC3F68
:10127000A5B62B0A6C308EC1E2C4D43F4DB76409C9
:10128000D2314FC176C4DB3FF8B79D08343315C166
:101290000CC4E13FA6B8D6079234E0C0A1C3E73F33
:1012A00056B90E07EB35B1C038C3EC3F09BA460654
:1012B0003F3788C0CFC2F13FBFBA7E058E3864C0C9
:1012C00066C2F53F77BBB504D93945C0FEC1F83FCA
:1012D00032BCED031E3B2CC097C1FB3FF0BC240386
:1012E0005F3C19C030C1FD3FB0BD5B029A3D0BC0F1
:1012F000CAC0FF3F73BE9201D03E03C065C000402C
:1013000038BFC900202A04DB203A21FA02F000216C
:10131000704721FA02F3D040C2F120029140084305
:1013200019467047D2B201E000F8012B491EFBD2EA
:1013300070470022F6E710B513460A4604461946E0
:10134000FFF7F0FF204610BDF0B480EA0102D40F91
:101350004200B2EB410F02D20246084611464A0053
:1013600042D0C30DDDB2C1F3C752AD1A202D35DA1C
:10137000C1F3160141F4000204B15242C5F1200646
:1013800002FA06F12A411044B3EBD05F23D0C4B176
:10139000012DA0EBC35009DCF0BC4FF0004202EA83
:1013A000C352DBB200F5000000F001B9400000F1CB
:1013B000807000EBC350A0F1807040EAD17049000A
:1013C00009E0490841EAC071A0EBC35000F50000F4
:1013D000400800EBC350F0BC00F0E0B861420122CD
:1013E00002EB4101001BF6E7F0BC704781F00041C1
:1013F000AAE780F00040A7E780EA010210B502F0FA
:101400000043400022D04A001FD0010E01EB1261C0
:10141000C0F35600C2F3560240F4000042F400024A
:10142000A0FB022000047F39140400D0401C50EAC5
:10143000124001D44000491EC2B20C0604EBD01089
:10144000401C4008802A02D003E0002010BD20F09C
:101450000100002900DA0020184310BD420005D029
:10146000C0F3C7525242914201DC0020704700EBAA
:10147000C150704770B521F0004303430CD0C1F355
:101480000A550024D5EB040564EB0403D617AD1A06
:10149000B34102DB0020014670BD201841EB025130
:1014A00070BDC10F80EAE0700844CA07962300218E
:1014B00000F07DB820F00040C10DC0F3160040F4EC
:1014C00000007F2901DA00207047962903DCC1F172
:1014D0009601C840704796398840704700F0004236
:1014E00030F000400AD0C10D01F56071C0F3160064
:1014F00042EA0151C20840071143704700200146EB
:10150000704701F0004330B421F0004150EA01027D
:1015100006D00A0DA2F56072C1F31301002A02DCA5
:1015200030BC00207047440F44EAC104C100E018F9
:1015300030BC00EBC25000F031B82DE9F05F054639
:10154000002092469B4688460646814640241BE082
:101550002846414647462246FFF7D4FE53465A46A0
:10156000C01A914110D311461846224600F0B0F837
:101570002D1A67EB01084F4622460120002100F09A
:10158000A7F817EB00094E41201EA4F10104DFDC8F
:10159000484631462A464346BDE8F09F0029A8BF89
:1015A0007047401C490008BF20F00100704710B48C
:1015B000B0FA80FC00FA0CF050EA010404BF10BC41
:1015C000704749B1CCF1200421FA04F411FA0CF16E
:1015D00018BF012121430843A3EB0C01CB1D4FEAA7
:1015E00000614FEA102042BF002010BC704700EBA2
:1015F000C35010440029A4BF10BC7047401C4900D0
:1016000008BF20F0010010BC70472DE9F04D002309
:101610001A461B1A8A4103DB00200146BDE8F08D03
:10162000C1F30A52C1F3130141F480154FF0000BCE
:10163000D10702D100186D41521E0027044640F226
:10164000FF11384601EB620A3E4680460246002002
:101650004FF48011FFF756FEC2197141BB1846EBDB
:101660000100B4EB030C75EB000C04D3E41A65EB3A
:10167000000517460E46241908F101006D41804609
:101680003428E3DDF91946EB0600091BA84103D213
:101690004FF0FF32134601E0002213461BEB070018
:1016A00046EB0A51BDE8F04D00F021B8064C074D5D
:1016B00006E0E06840F0010394E807009847103422
:1016C000AC42F6D3FEF716FD603400088034000803
:1016D000202A04DB203A00FA02F1002070479140F2
:1016E000C2F1200320FA03F319439040704710B56C
:1016F000141E73F1000408DA401C41F10001921835
:101700005B411A4301D120F0010010BD2DE9F04DDD
:1017100092469B4611B1B1FA81F202E0B0FA80F232
:1017200020329046FFF7D4FF04460F4640EA0A00F5
:1017300041EA0B0153465A46084313D0114653EA77
:10174000010019D0C8F140025046FFF7DBFD054605
:101750000E46504659464246FFF7BAFF084305D0A9
:10176000012004E020463946BDE8F08D0020054305
:1017700046EAE0762C4337430A986305E40AA0EB77
:1017800008000022FD0A44EA47540A3002D500202E
:101790000146E9E7010510196941DDE9084500192D
:1017A0006941BDE8F04DA2E770B504460068816864
:1017B000C943C90717D1816821F00101816000F098
:1017C000F1FC05460AE000BF00F0ECFC401B0228DB
:1017D00004D920688068C043C00706D020688068AC
:1017E000C043C007F0D0002070BDA06A40F01000D8
:1017F000A062E06A40F00100E062012070BD10B517
:101800000146406A826A12F0500F05D0006A026BEE
:10181000BDE8104008461047816A41F400718162BA
:1018200001688968C1F3424107290CD1017B51B994
:10183000816A21F480718162816AC90403D4816A5A
:1018400041F00101816200F04DF910BD10B5406A10
:10185000816A41F040018162C16A41F00401C162C4
:1018600000F042F910BD10B5406A00F03CF910BD1F
:10187000F8B500260446009600688168C943C90788
:101880002DD0816841F00101816016481649006839
:10189000B0FBF1F000E0401E00900028FBD100F00A
:1018A00081FC054616E000BF00F07CFC401B0228CE
:1018B00010D920688068C043C0070BD0A06A40F0F0
:1018C0001000A062E06A40F00100E06284F8246049
:1018D0000120F8BD20688068C043C007E4D1002023
:1018E000F8BD00001000002040420F00FEE700009D
:1018F00010B5034800F056FA02490120087010BDE7
:101900004C2800200000002030B590F84050012401
:10191000AC40C56B6C60046863604368102B03685F
:1019200003D099600068C26030BD9A600068C160F1
:1019300030BD704772B6FEE72DE9F05FDFF89C908E
:1019400000246FF00E076FF0090B09F500684FF4E3
:10195000007A00BF59F8241008B20E14FFF7A1FD59
:101960000A21FFF77BFD3946FFF778FD0546304633
:10197000FFF797FD0A21FFF771FD3946FFF76EFD6E
:101980000146FFF739FD064629460846FFF734FDB4
:101990003146FFF7D9FCFFF7A1FD01F025FD5A46BE
:1019A000FFF768FDFFF7ADFD84B11021FFF756FD8D
:1019B000FFF780FD48F8240058F8241008A001F033
:1019C0006DFB641C5445C5D3BDE8F09F0F21FFF7A4
:1019D00045FDFFF76FFDC8F80000EDE71C10002083
:1019E000256C640D0A000000F8B50024009490F8FE
:1019F00024202546012A12D0012280F824204A689A
:101A00001F23072A0DD20668776B521E02EB820253
:101A100093409F430B6893401F43776319E0022074
:101A2000F8BD06680D2A0AD2376BD21F02EB82027C
:101A300093409F430B6893401F43376309E0F76A65
:101A40000D3A02EB820293409F430B6893401F4381
:101A5000F7620A68072306680A2A0AD3F7680A3A6F
:101A600002EB420293409F438B6893401F43F76011
:101A700008E0376902EB420293409F438B68934032
:101A80001F4337610A68102A01D0112A20D1124B56
:101A900002689A4217D193681B0219D4936843F4E1
:101AA000000393600968102912D10C490C4A096897
:101AB000B1FBF2F101EB8101490000E0491E009108
:101AC0000029FBD104E0816A41F0200181620124F8
:101AD00080F824502046F8BD00240140100000206A
:101AE00040420F0070477047704700002DE9F041F9
:101AF0004FF0000704003D467ED0A06A002628B9BA
:101B0000E66284F82460204600F07EF82046FFF765
:101B10004BFEA16A01F01001014304D0A06A40F01D
:101B20001000A06268E0A16A21F4885141F002012E
:101B3000A1626268E169237B0A4347EA43010A43E1
:101B4000A1684FF48077B94208D0012906D000215E
:101B500094F814C0BCF1010F02D00AE03946F7E74F
:101B6000F3B1A36A43F02003A362E36A43F00103E5
:101B7000E3622368D3F804C02CF4694C4CEA010CEE
:101B8000C3F804C023689968DFF870C001EA0C014B
:101B900011439960A168B9420BD0012909D00CE02A
:101BA000DFF85CC0A3690CEB43330B4343F40061E3
:101BB000DFE7218A0D05A5F580152168CB6A23F49E
:101BC00070032B43CB62216889680E4B1940914208
:101BD00008D1E662A16A21F0020141F00101A1628F
:101BE000BDE8F081A06A20F0020040F01000A06281
:101BF000E06A40F00100E0620120F1E7FDF7E1FF5B
:101C000000E0FFFFFE0E1FFF70B586B00025064600
:101C1000009501950295039500681A4988422ED1D6
:101C20001949886940F400708861886900F400707F
:101C30000490886940F0040088618869694600F072
:101C40000400049001200090032001900F4800F050
:101C5000B9F9104C0E48C4E900058020C4E90250CF
:101C600040002061800060612020C4E90605204614
:101C700000F042F908B1FFF75DFE3462666206B01B
:101C800070BD000000240140001002400008014027
:101C9000080002404C2800202DE9F0478946044600
:101CA0003B4900683B4F0E1D9046884201D0B84228
:101CB00007D1306810F4702F03D001252846BDE805
:101CC000F08794F8240001280CD0012084F8240027
:101CD0002046FFF7CDFD05004FF0000004D084F84A
:101CE0002400EBE70220EAE7A16A40F60162914393
:101CF00041F48071A1622168B94218D1326812F4AE
:101D0000702F14D0A16A41F48011A1623168490595
:101D100005D5A16A21F4005141F48051A162A16A64
:101D2000C9040AD5E16A21F00601E16206E0A26A6F
:101D300022F48012A2624968E9E7E06284F8240094
:101D4000216A15488862216A1448C862216A1448C9
:101D5000086321686FF0020008602068816841F420
:101D600080718160216843464A464C31206A00F008
:101D7000F1F820688168C1F342410729816803D0E6
:101D800041F48011816099E741F4A001FAE7000075
:101D90000024014000280140FF17000867180008D0
:101DA0004D1800082DE9F05FC16B0C6801680B68E5
:101DB000D0F840C0042202FA0CF2494DDFF824A109
:101DC000494E4A4FDFF828B1DFF828E122422CD0F3
:101DD0005A072AD50A68920603D40A6822F0040238
:101DE0000A600168A94201D1042219E0514501D1DC
:101DF000402215E0B14202D14FF4806210E0B942B6
:101E000002D14FF480420BE0594502D14FF48022B9
:101E100006E0714502D14FF4800201E04FF080628C
:101E20002F4908394A60C16A3BE04FF0020808FABE
:101E30000CF818EA040F4FF000094FF0010235D0FA
:101E40005FEA837832D50B689B0605D40B6823F0D4
:101E50000A030B6080F821200168A94201D1022207
:101E600019E0514501D1202215E0B14202D14FF4D1
:101E7000007210E0B94202D14FF400520BE0594514
:101E800002D14FF4003206E0714502D14FF4001246
:101E900001E04FF00072124908394A6080F8209042
:101EA000816A00291AD0BDE8F05F0847082505FAC5
:101EB0000CF5254212D01B0710D50B6823F00E033A
:101EC0000B6090F84010C36B02FA01F15960826315
:101ED00080F8212080F82090016BE2E7BDE8F09FB8
:101EE000080002401C000240300002404400024052
:101EF000580002406C00024030B528B308C81349AE
:101F000014221944B1FBF2F18900C16310498163C5
:101F1000022141771A6843F6F0718A43D0E9001430
:101F20002143D0E902452C432143046921434469FC
:101F30002143846921431143196000214163012237
:101F400042770177084630BD012030BDF8FFFDBF64
:101F50000000024070B5044690F8200000250128DA
:101F60000CD0012084F8200094F821600020012E7C
:101F700006D084F820000225284670BD022070BDDE
:101F8000022684F82160A0632068066826F0010616
:101F900006602046FFF7B8FCE06A00282068016868
:101FA00002D041F00E0106E021F00401016020683A
:101FB000016841F00A0101602068016841F00101F7
:101FC0000160D9E72DE9F84FDFF8B8910024A9F1B5
:101FD000040B23460F2709F1040AABF1040EC9E0F4
:101FE0000125A5402A40AA427DD1674ED1F804C000
:101FF000ACEB0608B44532D014DCBCF1030F3AD088
:1020000009DCBCF1000F2AD0BCF1010F1CD0BCF1DF
:10201000020F31D11DE0BCF1110F17D0BCF1120F2E
:102020002AD119E0B8F5881F19D006DCB8F5803F31
:1020300015D0B8F5801F1FD111E0B8F5001F0ED0E4
:10204000B8F5041F18D10AE0CB6815E0CB681B1D5A
:1020500012E0CB6808330FE0CB680C330CE08B68E0
:102060002BB1012B4FF0080303D0456104E004239A
:1020700002E0056100E00023FF2A01D8064601E0E6
:1020800000F104064FEA840501D9A5F12005D6F830
:10209000008007FA05FC28EA0C0803FA05F548EA6F
:1020A0000508C6F800804D68ED0062D5374DAE6971
:1020B00046F00106AE61AD6924F0030605F00105A6
:1020C0000095334D06EB050CDCF80850A607360FDB
:1020D00007FA06F825EA0805DFF8B880404503D17D
:1020E0004FF0000817E044E0DFF8AC80404502D133
:1020F0004FF001080FE0DFF8A480404502D14FF017
:10210000020808E0DFF89880404502D14FF003084C
:1021100001E04FF0040808FA06F848EA0508CCF890
:1021200008804D68D9F80060ED024D4601D5164390
:1021300000E096432E604D68DAF80060AD02554627
:1021400001D5164300E096432E604D68DBF8006031
:10215000AD035D4601D5164300E096432E604D6801
:10216000DEF80060ED03754601D5164300E09643A6
:102170002E60641C0D682A46E5407FF431AFBDE84F
:10218000F88F000008040140000011100010024008
:102190000000014000080140000C01400010014017
:1021A00000140140014880687047000004000020CE
:1021B0000248816802781144816070470400002061
:1021C000074810B5016841F010010160032000F0DC
:1021D00075F80F2000F006F800F024F8002010BD7C
:1021E0000020024070B50D4D04464FF47A712878F6
:1021F000B1FBF0F00A490968B1FBF0F000F052FBC6
:1022000048B9102C07D200222146501E00F036F8A3
:1022100000206C6070BD012070BD00000400002033
:10222000100000200C4808B5816941F0010181616E
:10223000816901F001010091C16941F08051C161E2
:10224000C06900F0805000900448416821F0E061CE
:1022500041F00071416008BD0010024000000140E3
:10226000002809DB00F01F02012191404009800095
:1022700000F1E020C0F8001170470000F0B40E4BF0
:102280001B680C46C3F30223C3F10705042D00D9D4
:102290000425191D072901D2002300E0DB1E0126B9
:1022A00006FA05F1491E214099409E40761E1640CF
:1022B0003143F0BC00F002BF0CED00E0064900F035
:1022C000070208684FF6FF03184040EA0220034A5D
:1022D00010430860704700000CED00E00000FA05B4
:1022E0002DE9F84305460078354CC00754D0E06925
:1022F0000026C00008D4E06940F08050E061E06949
:10230000012600F0805000902E480168C90512D4C3
:102310000168804641F480710160FFF743FF074682
:1023200005E000BFFFF73EFFC01B642823D8D8F8A4
:102330000000C005F6D5206A10F4407021D0A988AD
:1023400001F4407181421CD0206A1F49012220F40F
:1023500040700A6000220A602062C00711D0FFF7B7
:1023600021FF074641F2883808E000BFFFF71AFF57
:10237000C11B414502D90320BDE8F883206A8007CC
:10238000F4D5206A696820F44070084320621EB1C9
:10239000E06920F08050E0612878800705D560680A
:1023A000A96820F44040084360602878C00605D53D
:1023B0006068E96820F48000084360600020DBE783
:1023C0000010024000700040400442422DE9F047F6
:1023D0000F46050061D0434E306800F00700B84258
:1023E00009D2306820F0070038433060306800F0D0
:1023F0000700B84251D128683B4C810712D54007ED
:1024000003D5606840F4E06060602878000703D579
:10241000606840F4605060606068A96820F0F00077
:10242000084360602878C00728D06868012810D069
:102430002168022810D0890700292EDA616821F06E
:10244000030101436160FFF7ADFE804641F2883928
:102450000DE021688903EFE78901EDE7FFF7A2FEB0
:10246000A0EB0801494502D90320BDE8F087606868
:10247000696800F00C00B0EB810FEFD1306800F01C
:102480000700B8420BD9306820F0070038433060AD
:10249000306800F00700B84201D00120E5E7287855
:1024A000400705D56068E96820F4E0600843606093
:1024B0002878000706D56068296920F4605040EA52
:1024C000C100606000F038F86168084AC1F3031188
:1024D000515CC8400649086006480068FFF782FE64
:1024E0000020C2E7002002400010024046340008ED
:1024F00010000020080000200448054900684968D1
:10250000044AC1F30221515CC8407047100000200A
:102510000010024056340008044805490068496824
:10252000044AC1F3C221515CC8407047100000202A
:1025300000100240563400080E4A51680E4801F05F
:102540000C03042B11D0082B0FD10C48C1F383438B
:10255000C903C05C0AD55168084AC1F34041921EC4
:10256000515C054A5043B0FBF1F0704704494843C1
:10257000704700000010024000127A003634000854
:1025800000093D002DE9F84F040070D02078C04DBF
:10259000C00749D06868C0F38100012807D0686887
:1025A000C0F38100022809D16868C00306D52868F5
:1025B000800339D560680028E7D035E06068B0F561
:1025C000803F0BD010B1B0F5A02F11D0286820F4B7
:1025D00080302860286820F4802002E0286840F4D9
:1025E00080302860606890B1FFF7DCFD06460AE0A5
:1025F000286840F480202860F0E700BFFFF7D2FD94
:10260000801B642873D828688003F7D50CE0FFF797
:10261000C9FD064605E000BFFFF7C4FD801B642826
:10262000F0D828688003F7D420789A4E80074FF0BE
:1026300001094FF0000839D5686810F00C0F07D079
:102640006868C0F38100022809D16868C00306D415
:102650002868800714D52069012808D110E0206976
:10266000B0B1C6F80090FFF79DFD074605E00AE10E
:10267000FFF798FDC01B0228C4D828688007F7D54B
:102680002868616920F0F80040EAC10028600DE088
:10269000C6F80080FFF786FD074604E0FFF782FDDD
:1026A000C01B022823D828688007F7D420780007A9
:1026B0002CD57948A169D9B1C0F80090FFF772FD17
:1026C000074604E0FFF76EFDC01B02280FD8686ABA
:1026D0008007F7D571484FF4FA510068B0FBF1F06C
:1026E000009000BF0098411E0091FAD20EE080E0F9
:1026F000C0F80080FFF756FD074604E0FFF752FDE3
:10270000C01B022875D8686A8007F7D42078400774
:1027100060D5E8690027C00008D4E86940F080501F
:10272000E861E869012700F0805000905C4801688A
:10273000C90513D40168834641F480710160FFF735
:1027400031FD824606E000BFFFF72CFDA0EB0A003A
:1027500064284ED8DBF80000C005F5D5E0680128F4
:102760000AD008B1052813D0286A20F00100286299
:10277000286A20F0040002E0286A40F00100286284
:10278000E06841F2883B98B1FFF70CFD82460BE010
:10279000286A40F004002862EEE700BFFFF702FD60
:1027A000A0EB0A0159455AD8286A8007F6D50CE0F3
:1027B000FFF7F8FC824605E0FFF7F4FCA0EB0A0106
:1027C00059454CD8286A8007F6D41FB1E86920F033
:1027D0008050E861E06988B36968C1F3810102292A
:1027E00044D00228C6F8608004D0FFF7DBFC044622
:1027F00038E034E0FFF7D6FC074604E0FFF7D2FCF0
:10280000C01B02282BD828688001F7D4206AB0F5B5
:10281000803F05D16868A16820F4003008436860F3
:10282000D4E908010843696821F474110843686019
:10283000C6F86090FFF7B6FC044606E025E000BF4E
:10284000FFF7B0FC001B022809D828688001F7D5E3
:102850001BE000BFFFF7A6FC001B022802D90320E3
:10286000BDE8F88F28688001F4D40EE00128F7D085
:102870006868226A00F48031914204D1616A00F4F0
:102880007010884201D00120EAE70020E8E700004C
:10289000001002400000424280044242100000202A
:1028A0000070004010B5401EB0F1807F01D30120C0
:1028B00010BD4FF0E02460610F21601700F0FEFBB7
:1028C0000020A06107202061002010BD70B590F8A5
:1028D0003C20012A26D0012480F83C40022280F8C6
:1028E0003D2003685A689D6822F070060A683243EA
:1028F0005A600D4B02689A4208D0B2F1804F05D061
:102900000A4B9A4202D00A4B9A4204D1496825F0F8
:1029100080031943916080F83D40002180F83C100D
:10292000084670BD022070BD002C0140000400402C
:102930000008004010B5040003D094F83D0010B129
:1029400007E0012010BD002084F83C00204600F084
:102950001FF8022084F83D00211D206800F070FA65
:10296000012084F8460084F83E0084F83F0084F893
:10297000400084F8410084F8420084F8430084F861
:10298000440084F8450084F83D00002010BD00009C
:1029900008B500680649884208D10648C16941F077
:1029A0000201C161C06900F00200009008BD000092
:1029B000000400400010024090F83D10012901D0B1
:1029C00001207047022180F83D1000680B498842C1
:1029D00008D0B0F1804F05D00949884202D009499A
:1029E000884204D1816801F00701062903D00168FB
:1029F00041F001010160002070470000002C0140FF
:102A0000000400400008004070B5044690F83C0007
:102A10000025012817D0012684F83C60022084F8A4
:102A20003D002068826822F0770222F47F428260B3
:102A30000868502838D00DDC20284FD005DC90B332
:102A4000102811D14AE0022070BD302846D040281D
:102A50000AD13BE060282FD070280DD0B0F5805F00
:102A600003D0B0F5005F12D0012584F83D6000204E
:102A700084F83C00284670BDCB68D1E9012120686C
:102A800000F01AFA2068816841F0770109E0CB680C
:102A9000D1E90121206800F00FFA2068816841F433
:102AA00080418160E1E719E0CA684968206800F068
:102AB00015FA5021206806E0CA684968206800F0CD
:102AC0001EFA6021206800F001FACEE7CA68496862
:102AD000206800F003FA40212068F4E722680146EC
:102AE0001046F0E770B5040004D094F841000025CA
:102AF00010B106E0012070BD84F84050204600F07F
:102B000023F8242084F841002068C16821F4005192
:102B1000C160204600F02CFA2068016921F4904140
:102B200001612068416921F02A0141612068C16882
:102B300041F40051C1606564202084F8410084F8AC
:102B400042006563002070BD30B585B0002400945C
:102B500001940294039400681449884224D11448D3
:102B6000816941F480418161816901F4804104916E
:102B7000816941F00401816180690E4D00F004001B
:102B800004904FF400700090022001900320039005
:102B900069462846FFF716FA2815CDE9000469466C
:102BA00028460294FFF70EFA05B030BD0038014008
:102BB00000100240000801402DE9F843044690F857
:102BC0004100984616460D46202802D00220BDE856
:102BD000F88385B17EB100206064212084F8410033
:102BE000FFF7E0FAA6848146E684A0682027B0F5C6
:102BF000805F02D003E00120E9E7206910B12E4692
:102C000000250EE000260CE08021204600F00CFAA2
:102C1000A8B9C6B116F8010B21684860E08C401EC7
:102C2000E084E08C4B464FF00002CDF80080002895
:102C3000EAD14FF04001204600F0F6F940B184F8A7
:102C400041700320C3E735F8020BC0F30800E3E747
:102C500084F841700020BAE7FEE700003EB500248A
:102C600011480094019402940E4984600160047339
:102C70000475012505614FF400214460C161FEF730
:102C800035FF08B1FEF756FE05200094CDE901504E
:102C900069460548FEF7A8FE002801D0FEF74AFE67
:102CA0003EBD0000002401401C280020094808B552
:102CB000416941F0010141614069002200F00100D9
:102CC000009011460B20FFF7D9FABDE808400B2011
:102CD000FFF7C6BA001002400D4808B5816941F0FF
:102CE00010018161816901F010010091816941F059
:102CF00020018161816901F020010091816941F029
:102D000004018161806900F00400009008BD0000AA
:102D10000010024010B586B00024184800940194B9
:102D20000294039404941449059401604721C0E976
:102D300001144FF4FA61C0E9031480218161FFF7A7
:102D4000F9FD08B1FEF7F6FD4FF48050009069469A
:102D50000A48FFF759FE08B1FEF7ECFD2020CDE947
:102D6000040404A90548FFF7B1FD002801D0FEF7CF
:102D7000E1FD06B010BD00000004004090280020D6
:102D80000C4810B50A4901604FF4E131416000215F
:102D900081600C22C160C0E904128161C161FFF74A
:102DA000A1FE002803D0BDE81040FEF7C3BD10BD52
:102DB00000380140D8280020FEE7FEE77047704742
:102DC000FFF7F6B930B593B028216846FEF7B1FA9F
:102DD00014210AA8FEF7ADFA002501200F951095E1
:102DE0001195010412958DE8230004904FF4E01032
:102DF000CDE90810022407946846FFF7C3FB08B129
:102E000072B6FEE70AA90F2081E831004FF4806016
:102E1000CDE90D0502210AA8FFF7D8FA08B172B66C
:102E2000FEE74FF4004011900F940FA8FFF758FAF7
:102E3000002801D072B6FEE713B030BD7047000025
:102E4000F0B50268194B1A4C1A4D4FF08047984262
:102E500005D0B84203D0A04201D0A84203D122F04D
:102E600070064A683243984205D0B84203D0A04267
:102E700001D0A84203D122F44074CA6822434C69AD
:102E800022F08002224302608A68C2620A6882627B
:102E9000984201D109690163012141610169C907B2
:102EA00003D0016921F001010161F0BD002C014056
:102EB000000400400008004010B5846842EA032284
:102EC00024F47F440A432243826010BD826822F0CA
:102ED00070020A4342F007018160704710B5036A2F
:102EE000046A24F001040462846924F0F00444EAD2
:102EF000021423F00A020A438461026210BD10B575
:102F0000036A046A24F010040462846923F0A003B5
:102F100024F4704444EA023243EA011182610162FE
:102F200010BD01680C3151E8002F22F4907241E885
:102F30000023002BF5D10168143151E8002F22F055
:102F4000010241E80023002BF5D1016B012909D1D1
:102F500001680C3151E8002F22F0100241E80023F3
:102F6000002BF5D1202180F8421000210163704729
:102F700070B5044600680169E26821F440511143CC
:102F800001612169A0680843616908432168CA6832
:102F900041F20C639A430243CA6020684169A26906
:102FA00021F44071114341611E492068884202D1D9
:102FB000FFF7B2FA01E0FFF79FFA00EBC00101EB67
:102FC0000012606864218000B2FBF0F3B3FBF1F300
:102FD0006FF018067343B2FBF0F5B2FBF0F605EBA9
:102FE0008305322303EB0515B5FBF1F5B6FBF1F6CE
:102FF00005F0F00505EB0615B2FBF0F6B2FBF0F0BC
:10300000B0FBF1F06FF01802504306EB800003EBC9
:103010000010B0FBF1F0216800F00F002844886038
:1030200070BD0000003801402DE9F843984617466E
:103030000D460446089E24E0701C22D0FFF7B2F82B
:10304000A0EB0800B0421AD8CEB12068C168490789
:1030500017D5802D15D0402D13D00168C94309071D
:103060000FD401680025406800902046FFF759FF03
:103070000820606484F840500120BDE8F8830320F4
:10308000FBE72068006835EA000004D00020B84261
:10309000D2D00020F1E70120F9E7FEE70FB4054B9D
:1030A00010B503A9044A029800F02EF810BC5DF890
:1030B00014FB000035330008140000200907090E36
:1030C000002804DB00F1E02080F80014704700F0D5
:1030D0000F0000F1E02080F8141D704702E008C8DE
:1030E000121F08C1002AFAD170477047002001E082
:1030F00001C1121F002AFBD170470000014908607E
:1031000070470000180000202DE9FF4F8BB09A4651
:103110000F460446002606E025280BD052460D999E
:103120009047641C761C20780028F5D10FB03046FB
:10313000BDE8F08F0025A94601227D4900E0054346
:1031400014F8013F203B02FA03F00842F7D120783F
:103150002E2817D114F8010F45F004052A280ED0A7
:103160006FF02F022078A0F1300109290AD809EB6D
:10317000890102EB410100EB0109641CF2E757F8F9
:10318000049B641C20786C280DD004DC4C2812D0E1
:103190006A2811D104E074280DD07A280CD10AE0F5
:1031A00045F4001507E0617845F48015814202D1AD
:1031B000641C05F58015641C207869283ED006DC67
:1031C0000028B3D063280BD0642804D136E07328DC
:1031D00010D075285CD052460D999047761CA5E01A
:1031E00017F8040B8DF8000000208DF80100E84668
:1031F000012003E057F8048B4FF0FF3069074FF0D0
:10320000000501D40AE06D1C4D450DDA8542FADB5C
:1032100018F805100029F6D106E06D1C8542FCDB8C
:1032200018F805100029F8D12E4404E018F8010B15
:1032300052460D9990476D1EF8D277E000200A9013
:10324000C5F302504FF00A0B02280CD001CFC11772
:10325000021E71F100020CDA0023D0EB030063EBD5
:1032600001012D2208E0FF1D27F00707F7E8020102
:10327000EEE72A0504D52B228DF82420012203E055
:10328000EA070FD02022F7E70DF12008089218E096
:1032900000200A90C5F302504FF00A0B022803D019
:1032A00001CF00210022EFE7FF1D27F00707F7E815
:1032B0000201F7E75A460A9BFEF73FF9303208F859
:1032C000012D50EA0102F5D1ADEB080000F1200B11
:1032D000680701D44FF00109D94502DDA9EB0B00C5
:1032E00000E000208146002506E009A85246405D26
:1032F0000D9990476D1C761C08988542F5DB04E01B
:10330000302052460D999047761CB9F10001A9F181
:103310000109F5DC05E018F8010B52460D999047BC
:10332000761CBBF10001ABF1010BF4DC641CFAE686
:103330000928010013B54FF0FF3301226946024806
:10334000FFF73AFC00981CBDD8280020FEF738FF94
:10335000FFF738FDFFF7C0FCFFF712FDFFF7A6FCF3
:10336000FFF77CFCFFF7D6FC1648FFF725FB4FF470
:1033700080652A4614491548FEF78EFC14A0FFF715
:103380008DFE114E164C4FF00008A6F50057207820
:103390000028FCD084F8008000202A4636F810105F
:1033A000A1F50061090447F82010401C80B290424A
:1033B000F4D30C4901F58050FCF7B4FEFEF7BCFADB
:1033C000E5E70000902800201C2000201C28002099
:1033D000737461727420746573740D0A00000000C8
:1033E000000000201C0000202DE9F04106460F4699
:1033F000FEF70BF9041E0D4618BF0120284320F0EC
:103400000040C0F17F6000F1E040C00F0ED0301CE2
:1034100018BF0120384320F00040C0F17F6000F168
:10342000E040C00F04BF0120FFF768FE2046294698
:10343000BDE8F081010202030405060708090A0B32
:103440000C0D0E0F10100000000000000000010223
:10345000030406070809000000000102030400003D
:1034600080340008000000201C000000DC30000850
:103470009C3400081C000020042D0000EC300008E3
:10348000000000000100000010000000000000002B
:0C34900000127A000000000000000000A4
:04000005080000ED02
:00000001FF
