:020000040800F2
:10000000B02D002001010008473900086D330008B9
:1000100045390008C91C0008133D00080000000015
:10002000000000000000000000000000393A000855
:100030000F1D000800000000493900083B3A000885
:100040001B0100081B0100081B0100081B01000820
:100050001B0100081B0100081B0100081B01000810
:100060001B0100081B0100081B010008CD1C000833
:100070001B0100081B0100081B0100081B010008F0
:100080001B0100081B0100081B0100081B010008E0
:100090001B0100081B0100081B0100081B010008D0
:1000A0001B0100081B0100081B0100081B010008C0
:1000B0001B0100081B0100081B0100081B010008B0
:1000C0001B0100081B0100081B0100081B010008A0
:1000D0001B0100081B0100081B0100081B01000890
:1000E0001B0100081B0100081B010008DFF80CD0F1
:1000F00001F014FD004800475D460008B02D0020C7
:100100000648804706480047FEE7FEE7FEE7FEE7B1
:10011000FEE7FEE7FEE7FEE7FEE7FEE7B73A000888
:10012000ED0000082DE9F04F4FF0000C4FF00003F8
:1001300001EB9C5EBEF90250BEF900400EF5806EE8
:10014000BEF90290BEF900800EF5806EBEF9027015
:10015000BEF900600EF5806EBEF902B0BEF900A0D7
:100160000EF5806ED044D944A8EB4A0AA9EB4B0B9C
:100170004FEAA4044FEAA50504EBA60405EBA70586
:10018000A4EB6606A5EB670704EBA80405EBA9053D
:10019000A4EB6808A5EB690906EBAB06A7EBAA0779
:1001A000A6EB6B0B07EB6A0A458020F8044B4780EF
:1001B00020F8046BA0F8029020F8048BA0F802A0AD
:1001C00020F804BB03F1010393FAA3FCB3F5807F8D
:1001D000AED1A0EB82014FF0100312090FF23410E0
:1001E00000F1000006B403EB430C6144A2F5803239
:1001F00002EB8332B1F90250B1F90040A1EB0301E7
:10020000B0F902B0B0F900A000F10400A5EB040EB3
:100210000EFB0BFC0AEB4B0E05FB0ACB04FB0ECAD4
:10022000B1F90250B1F90040A1EB0301B0F902901D
:10023000B0F9008000F10400A5EB040E0EFB09FCF0
:1002400008EB490E05FB08C904FB0EC8B1F90250C2
:10025000B1F90040A1EB0301B0F90270B0F9006000
:1002600000F10400A5EB040E0EFB07FC06EB470EA5
:1002700005FB06C704FB0EC6B1F90250B1F90040F8
:1002800001F10001D044D944A8EB4A0AA9EB4B0B79
:100290004FEAA4044FEAA50504EB264405EB2745E5
:1002A000A4EBE636A5EBE73704EB284405EB29453C
:1002B000A4EBE838A5EBE93906EB2B46A7EB2A4778
:1002C000A6EBEB3B07EBEA3A4D800C8019444F80DC
:1002D0000E801944A1F80290A1F800801944A1F8F9
:1002E00002A021F804BBB2F5803283DA03EB430CA1
:1002F0006144A2F101025FEA024E18BFA0EB0C00BC
:100300007FF476AF06BC4FEA830392087FF46AAFAE
:10031000BDE8F08F004000000040000000400000F9
:100320005DDD213BA3227E180000412D7EA5412DDD
:100330000000412D00C000405DDD82E75DDD213B16
:100340007EA5412D0040000000400000004000005C
:10035000AA2A94126B39460649327C0CA8118E23C6
:1003600049327C0CA3227E1821F77931AA2A9412F3
:10037000A8118E235DDD213BA3227E180000412DB4
:1003800095C6B13F461A2B1E58EE3735BEB4C53E52
:10039000A8118E235DDD213B63A97138DF089A28FF
:1003A000B7CDC53E7EA5412D0000412D00C00040C7
:1003B00063A92B1E21F77931BEB4C53EBEB47C0CB7
:1003C00058EE373561AC213B95C6BAF9BAE57138BC
:1003D0003BA737355DDD82E75DDD213B7EA5412D05
:1003E00021F766D756D53F3D3BA78E23A811C9CA32
:1003F000B7CDC53E61AC7E18AA2AC1C295C6B13F31
:10040000BEB47C0C00400000004000000040000032
:100410001E3BB504693E9201C83C2403EB356409D8
:10042000C83C24036B3946066C30060E1E3BB504EF
:10043000EB356409AA2A94126B39460649327C0CC2
:10044000AE240917AF37D607882E8D0F7E1E5D1B91
:10045000EB356409AA2A941224188C1F1E34F10A61
:10046000B3269015A8118E2349327C0CA3227E1846
:10047000140B60276C30060E7E1E5D1B7104FB2A78
:10048000882E8D0F461A2B1EC7FD5A2E9D2C121139
:10049000FE15E72021F77931AA2A9412A8118E239C
:1004A00087F05334B2281314480D202602EAE536AB
:1004B000B3269015DF089A289CE32B39AE24091740
:1004C0007104FB2A5DDD213BA3227E180000412D33
:1004D0004ED7C53C9320EF198FFB6C2F78D1153E7A
:1004E0007E1E5D1B21F77931E2CB0F3F641CC61CD9
:1004F000B8F2683395C6B13F461A2B1E58EE373511
:1005000097C1FB3F24188C1F02EAE536F0BCEC3F94
:10051000FE15E720BAE57138A6B8853FD5133D2210
:1005200082E1DB39BEB4C53EA8118E235DDD213BDF
:1005300040B1AF3D790FDA244DD9423C2EAE423C5A
:10054000480D202656D53F3D8EAB823A140B6027CE
:1005500078D1153E63A97138DF089A28B7CDC53E1A
:10056000B1A71236A906CE2915CA4F3F78A668331F
:100570007104FB2A95C6B13FBCA576303902212C07
:1005800038C3EC3F7EA5412D0000412D00C0004046
:10059000BCA5CE29C7FD5A2EF0BCEC3F78A620267C
:1005A0008FFB6C2F09BAB13FB1A73D2257F97630C6
:1005B0004DB74F3F63A92B1E21F77931BEB4C53E1D
:1005C0008EABEF19ECF474325EB2153E2EAE901580
:1005D000B8F268332DB03F3D40B1121187F053346B
:1005E0002EAE423CBEB47C0C58EE373561AC213B9C
:1005F000A6B8D6072BEC1236C8AADB39F0BC240308
:1006000002EAE53663A9713897C16EFEDCE7B037C0
:1006100034A8E53695C6BAF9BAE571383BA737353F
:10062000E2CB0FF59CE32B3978A6683378D173F0D1
:1006300082E1DB39EDA579314ED7EDEB6DDF823A02
:1006400099A56C2F5DDD82E75DDD213B7EA5412D07
:100650009CE33AE352DBB63B99A5FB2A02EA19DF99
:100660004DD9423CEDA59A2887F026DB4ED7C53CF4
:1006700078A6202621F766D756D53F3D3BA78E2387
:10068000C7FDDFD363D3AF3D34A8E720710494D016
:1006900078D1153E63A92B1E140B8CCD94CF723EDE
:1006A000C8AA5D1BA811C9CAB7CDC53E61AC7E18EA
:1006B000241850C8E2CB0F3F2EAE90157E1E25C6E3
:1006C00015CA4F3F2DB09412AE244AC451C8853F7D
:1006D0005EB28D0FAA2AC1C295C6B13FBEB47C0CD2
:1006E0006C308EC1E2C4D43F4DB76409EB35B1C064
:1006F00038C3EC3F09BA46061E3B2CC097C1FB3FEE
:10070000F0BC240300400000004000000040000056
:10071000D03E2E019B3F6500363FC9009A3D5B02EB
:10072000363FC900693E92015F3C8803D03E2E01EE
:100730009A3D5B021E3BB504693E9201C83C24030E
:10074000D939E205023EF701F43BED038E380E077E
:100750009A3D5B021E3BB5043F373908313DC0026C
:10076000463A7E05EB356409C83C24036B394606DE
:1007700092348E0A5F3C88038E380E073433B70BF1
:10078000F43BED03AF37D607D231DF0C8A3B51047F
:10079000CE369D086C30060E1E3BB504EB35640961
:1007A000022F2B0FB23A1A0505352B0A932D501044
:1007B000463A7E051E34F10A212C7311D939E2051F
:1007C0003433B70BAA2A94126B39460649327C0C93
:1007D0003129B413FD38AA065B31410DB327D21479
:1007E0008E380E076C30060E3226EE151F38720753
:1007F0007B2FCA0EAE240917AF37D607882E8D0F70
:10080000262321183F373908932D50109C21371982
:10081000CE369D089D2C12110E204B1A5D36010913
:10082000A42BD3117E1E5D1BEB356409AA2A9412FA
:10083000EB1C6C1C7835C709AF295413561B791D66
:1008400005352B0AB2281314BE19841E92348E0A61
:10085000B327D21424188C1F1E34F10AB326901526
:1008600088169120A933540BB1254C16EA14932114
:100870003433B70BAE2409174A139222BF321A0C35
:10088000A923C417A8118E2349327C0CA3227E18F9
:1008900005108824D231DF0C9C213719610E7E258A
:1008A0005B31410D9320EF19BB0C7126E430A40D90
:1008B000891FA71A140B60276C30060E7E1E5D1B65
:1008C0006D094C28F42F680E721D121CC4073529BF
:1008D0007B2FCA0E641CC61C1B061A2A022F2B0F64
:1008E000561B791D7104FB2A882E8D0F461A2B1E6C
:1008F000C702D82B0E2EEE0F3519DC1E1C01B22CB0
:10090000932D501024188C1F72FF882D182DB110B4
:1009100011173A20C7FD5A2E9D2C1211FE15E72003
:100920001DFC282F212C7311EA14932173FAF22F46
:10093000A42BD311D5133D22CAF8B830282B34127A
:10094000BF12E72221F77931AA2A9412A8118E2327
:1009500079F536322D2AF41291103524D2F3EF3284
:10096000AF295413790FDA242CF2A3333129B413AD
:10097000610E7E2587F05334B2281314480D2026CB
:10098000E3EEFF34332873142E0CC12641EDA53558
:10099000B327D214140B6027A1EB48363327311547
:1009A000FA09FE2702EAE536B3269015DF089A28F1
:1009B00065E87E373226EE15C4073529CBE61238B6
:1009C000B1254C16A906CE2932E5A1382F25AB1644
:1009D0008D05652A9CE32B39AE2409177104FB2A87
:1009E00008E2B0392B24661755038F2B77E0303A95
:1009F000A923C4173902212CE9DEAB3A262321189A
:100A00001C01B22C5DDD213BA3227E180000412D8C
:100A1000D5DB923B1F22DB18E4FECF2D4FDAFD3BE6
:100A20009C213719C7FD5A2ECDD8643C1721931944
:100A3000ABFCE42E4ED7C53C9320EF198FFB6C2FF7
:100A4000D3D5213D0E204B1A73FAF22F5CD4783D9A
:100A5000891FA71A57F97630E8D2C93D041F021B37
:100A60003CF8F93078D1153E7E1E5D1B21F77931B7
:100A70000CD05C3EF81DB81B06F6F831A5CE9D3EA5
:100A8000721D121CECF4743241CDD83EEB1C6C1C70
:100A9000D2F3EF32E2CB0F3F641CC61CB8F26833CE
:100AA00088CA403FDD1B201D9FF1DF3332C96B3FF9
:100AB000561B791D87F05334E1C7913FCE1AD31DE1
:100AC0006FEFC63495C6B13F461A2B1E58EE373528
:100AD0004EC5CC3FBE19841E41EDA5350CC4E13F87
:100AE0003519DC1E2BEC1236CFC2F13FAD18341F86
:100AF00016EB7D3697C1FB3F24188C1F02EAE536C2
:100B000065C000409B17E31FEFE84B3738BFFF3F3E
:100B100011173A20DCE7B03711BEF83F8816912054
:100B2000CBE61238F0BCEC3FFE15E720BAE5713891
:100B3000D4BBDB3F74153D21AAE4CF38BFBAC43F14
:100B4000EA1493219CE32B39AFB9A73F5F14E82146
:100B50008EE28439A6B8853FD5133D2282E1DB3988
:100B6000A2B75D3F4A13922277E0303AA5B6303FF4
:100B7000BF12E7226DDF823AAFB5FD3E34123B2350
:100B800064DED33ABEB4C53EA8118E235DDD213BA1
:100B9000D5B3883E1D11E22357DC6D3BF2B2453ED2
:100BA0009110352452DBB63B15B2FC3D051088246C
:100BB0004FDAFD3B40B1AF3D790FDA244DD9423CCD
:100BC00071B05B3DED0E2C254DD8853CA9AF033DA2
:100BD000610E7E254ED7C53CE8AEA53CD40DCF2591
:100BE00051D6033D2EAE423C480D202656D53F3D02
:100BF0007BADDA3BBB0C71265CD4783DD0AC6D3B51
:100C00002E0CC12663D3AF3D2BACFA3AA10B1127B2
:100C10006DD2E33D8EAB823A140B602778D1153E3E
:100C2000F8AA063A870AAF2785D0453E6AAA8439D2
:100C3000FA09FE2794CF723EE3A9FD386D094C28CE
:100C4000A5CE9D3E63A97138DF089A28B7CDC53E71
:100C5000EBA8E1375208E728CCCCEB3E7BA84B371A
:100C6000C4073529E2CB0F3F12A8B13636078129D8
:100C7000FBCA303FB1A71236A906CE2915CA4F3F8D
:100C800057A76E351B061A2A32C96B3F05A7C63413
:100C90008D05652A51C8853FBBA61934FF04B02ACB
:100CA00072C79C3F78A668337104FB2A95C6B13F92
:100CB0003EA6B232E303452BBAC5C43F0BA6F831BA
:100CC00055038F2BE2C4D43FE0A53931C702D82B9E
:100CD0000CC4E13FBCA576303902212C38C3EC3F6F
:100CE000A1A5AF2FAA016A2C66C2F53F8DA5E42EFF
:100CF0001C01B22C97C1FB3F81A5152E8E00FA2C4A
:100D0000CAC0FF3F7EA5412D0000412D00C000401C
:100D100081A56A2C72FF882D38BFFF3F8DA58F2BD0
:100D2000E4FECF2D73BEFB3FA1A5B02A56FE152EC3
:100D3000B0BDF53FBCA5CE29C7FD5A2EF0BCEC3F97
:100D4000E0A5E72839FD9F2E32BCE13F0BA6FE2728
:100D5000ABFCE42E77BBD43F3EA611271DFC282F09
:100D6000BFBAC43F78A620268FFB6C2F09BAB13FCB
:100D7000BBA62C2501FBAF2F56B99C3F05A73524F8
:100D800073FAF22FA6B8853F57A73B23E5F9343015
:100D9000F8B76B3FB1A73D2257F976304DB74F3FBB
:100DA00012A83D21CAF8B830A5B6303F7BA83A203A
:100DB0003CF8F93000B60F3FEBA8341FAEF73931DD
:100DC0005EB5EB3E63A92B1E21F77931BEB4C53E5B
:100DD000E3A9201D93F6B93122B49D3E6AAA121CE4
:100DE00006F6F83188B3723EF8AA021B79F536325E
:100DF000F2B2453E8EABEF19ECF474325EB2153EA2
:100E00002BACDB185FF4B232CDB1E33DD0ACC417EC
:100E1000D2F3EF3240B1AF3D7BADAB1645F32C338F
:100E2000B5B0783D2EAE9015B8F268332DB03F3D89
:100E3000E8AE73142CF2A333A9AF033DA9AF54134A
:100E40009FF1DF3328AFC53C71B0341213F1193470
:100E5000A9AE853C40B1121187F053342EAE423C0E
:100E600015B2EE0FFBEF8D34B6ADFD3BF2B2CA0EFC
:100E70006FEFC63441ADB63BD5B3A40DE3EEFF34FE
:100E8000D0AC6D3BBEB47C0C58EE373561AC213B29
:100E9000AFB5540BCCED6E35F6ABD33AA5B62B0AF5
:100EA00041EDA5358EAB823AA2B70109B6ECDC352F
:100EB00029AB303AA6B8D6072BEC1236C8AADB39D4
:100EC000AFB9AA06A1EB48366AAA8439BFBA7E0533
:100ED00016EB7D360FAA2B39D4BB51048CEAB13600
:100EE000B7A9CF38F0BC240302EAE53663A971380C
:100EF00011BEF70178E9183712A9123838BFC900B6
:100F0000EFE84B37C5A8B03765C09BFF65E87E3773
:100F10007BA84B3797C16EFEDCE7B03734A8E536C7
:100F2000CFC240FD53E7E137F1A77D360CC413FC77
:100F3000CBE61238B1A712364EC5E6FA42E6423881
:100F400074A7A53595C6BAF9BAE571383BA7373508
:100F5000E1C78EF832E5A13805A7C63432C963F778
:100F6000AAE4CF38D3A6533488CA39F623E4FD382F
:100F7000A4A6DF33E2CB0FF59CE32B3978A66833C8
:100F800041CDE6F315E3583950A6EF32A5CEBFF2B6
:100F90008EE284392CA674320CD098F108E2B03974
:100FA0000BA6F83178D173F082E1DB39EDA5793108
:100FB000E8D24FEFFCE0063AD3A5F9305CD42DEE31
:100FC00077E0303ABCA57630D3D50CEDF2DF593A54
:100FD000A9A5F22F4ED7EDEB6DDF823A99A56C2FC4
:100FE000CDD8CFEAE9DEAB3A8DA5E42E4FDAB4E9ED
:100FF00064DED33A85A55A2ED5DB9AE8E1DDFA3ACC
:101000007FA5CF2D5DDD82E75DDD213B7EA5412DF6
:10101000E9DE6DE6DADC473B7FA5B22C77E059E5E7
:1010200057DC6D3B85A5212C08E248E4D5DB923BDB
:101030008DA58F2B9CE33AE352DBB63B99A5FB2AA7
:1010400032E52DE2D1DADA3BA9A5652ACBE624E127
:101050004FDAFD3BBCA5CE2965E81DE0CED9203C8A
:10106000D3A5352902EA19DF4DD9423CEDA59A28CE
:10107000A1EB18DECDD8643C0BA6FE2741ED19DDAF
:101080004DD8853C2CA66027E3EE1EDCCDD7A53CD1
:1010900050A6C12687F026DB4ED7C53C78A6202671
:1010A0002CF231DACFD6E43CA4A67E25D2F33FD988
:1010B00051D6033DD3A6DA2479F551D8D3D5213DB5
:1010C00005A7352421F766D756D53F3D3BA78E238C
:1010D000CAF87FD6D8D45B3D74A7E72273FA9BD5B4
:1010E0005CD4783DB1A73D221DFCBBD4DFD3933D3A
:1010F000F1A79321C7FDDFD363D3AF3D34A8E72029
:1011000072FF06D3E8D2C93D7BA83A201C0131D238
:101110006DD2E33DC5A88C1FC70261D1F2D1FC3D61
:1011200012A9DC1E710494D078D1153E63A92B1E40
:101130001B06CCCFFED02D3EB7A9791DC40707CF23
:1011400085D0453E0FAAC61C6D0947CE0CD05C3E2B
:101150006AAA121C140B8CCD94CF723EC8AA5D1BD8
:10116000BB0CD4CC1CCF883E29ABA71A610E21CC76
:10117000A5CE9D3E8EABEF19051073CB2ECEB13EA2
:10118000F6AB3719A811C9CAB7CDC53E61AC7E18F8
:101190004A1324CA41CDD83ED0ACC417EA1483C93F
:1011A000CCCCEB3E41AD09178816E8C857CCFD3EC4
:1011B000B6AD4C16241850C8E2CB0F3F2EAE90159A
:1011C000BE19BEC76ECB203FA9AED214561B31C785
:1011D000FBCA303F28AF1314EB1CA8C688CA403F97
:1011E000A9AF54137E1E25C615CA4F3F2DB09412C9
:1011F0000E20A7C5A3C95D3FB5B0D3119C212DC555
:1012000032C96B3F40B112112623B9C4C1C8783F1F
:10121000CDB15010AE244AC451C8853F5EB28D0F87
:101220003226E0C3E1C7913FF2B2CA0EB3277BC3B7
:1012300072C79C3F88B3060E31291CC303C7A73F62
:1012400022B4410DAA2AC1C295C6B13FBEB47C0CDE
:10125000212C6DC227C6BB3F5EB5B70B932D1DC2B7
:10126000BAC5C43F00B6F10A022FD3C14EC5CC3F68
:10127000A5B62B0A6C308EC1E2C4D43F4DB76409C9
:10128000D2314FC176C4DB3FF8B79D08343315C166
:101290000CC4E13FA6B8D6079234E0C0A1C3E73F33
:1012A00056B90E07EB35B1C038C3EC3F09BA460654
:1012B0003F3788C0CFC2F13FBFBA7E058E3864C0C9
:1012C00066C2F53F77BBB504D93945C0FEC1F83FCA
:1012D00032BCED031E3B2CC097C1FB3FF0BC240386
:1012E0005F3C19C030C1FD3FB0BD5B029A3D0BC0F1
:1012F000CAC0FF3F73BE9201D03E03C065C000402C
:1013000038BFC900202A04DB203A21FA02F000216C
:10131000704721FA02F3D040C2F120029140084305
:1013200019467047D2B201E000F8012B491EFBD2EA
:1013300070470022F6E710B513460A4604461946E0
:10134000FFF7F0FF204610BDF0B480EA0102D40F91
:101350004200B2EB410F02D20246084611464A0053
:1013600042D0C30DDDB2C1F3C752AD1A202D35DA1C
:10137000C1F3160141F4000204B15242C5F1200646
:1013800002FA06F12A411044B3EBD05F23D0C4B176
:10139000012DA0EBC35009DCF0BC4FF0004202EA83
:1013A000C352DBB200F5000000F096B9400000F136
:1013B000807000EBC350A0F1807040EAD17049000A
:1013C00009E0490841EAC071A0EBC35000F50000F4
:1013D000400800EBC350F0BC00F075B96142012237
:1013E00002EB4101001BF6E7F0BC704781F00041C1
:1013F000AAE780F00040A7E780EA010210B502F0FA
:101400000043400022D04A001FD0010E01EB1261C0
:10141000C0F35600C2F3560240F4000042F400024A
:10142000A0FB022000047F39140400D0401C50EAC5
:10143000124001D44000491EC2B20C0604EBD01089
:10144000401C4008802A02D003E0002010BD20F09C
:101450000100002900DA0020184310BD420005D029
:10146000C0F3C7525242914201DC0020704700EBAA
:10147000C15070472DE9FE4F81EA030404F0004497
:1014800021F0004100944FF0000B23F0004350EA9C
:1014900001045ED052EA03045BD0C3F30A54C1F3E3
:1014A0000A552C44A4F2F3340194A0FB0254C1F376
:1014B000130141F48011C3F3130343F4801301FBC0
:1014C000024400FB034E840A970A44EA815447EA27
:1014D0008357A4FB076802958D0A05FB07854FEA31
:1014E000932C04FB0C542705029D4FEA065847EA4B
:1014F0001637B5EB08056EEB070C870E920E47EA20
:10150000811742EA8312A7FB0201B6EB0B0164EBE1
:1015100000042B0D43EA0C335E1844EB1C50DA46F2
:101520005146E7FB0201C5F313044FEA0B3343EACC
:1015300014534FEA0432019C43EA0603A4F10C045D
:101540000294009CCDE900B400F003F903B0BDE8BB
:10155000F08F00200146F9E770B521F00043034306
:101560000CD0C1F30A550024D5EB040564EB040349
:10157000D617AD1AB34102DB0020014670BD20181A
:1015800041EB025170BDC10F80EAE0700844CA0708
:101590009623002100F0A0B80EB540F2334102912D
:1015A0000021CDE900110A460B4600F0D2F803B045
:1015B00000BD20F00040C10DC0F3160040F4000053
:1015C0007F2901DA00207047962903DCC1F19601DA
:1015D000C840704796398840704700F0004230F0AC
:1015E00000400AD0C10D01F56071C0F3160042EA57
:1015F0000151C2084007114370470020014670475F
:1016000001F0004330B421F0004150EA010206D05D
:101610000A0DA2F56072C1F31301002A02DC30BC8E
:1016200000207047440F44EAC104C100E01830BCF8
:1016300000EBC25000F047B830B50B460146002021
:101640002022012409E021FA02F59D4205D303FA84
:1016500002F5491B04FA02F52844151EA2F1010205
:10166000F1DC30BD2DE9F05F0546002092469B4637
:1016700088460646814640241BE0284641464746A8
:101680002246FFF73FFE53465A46C01A914110D3F7
:1016900011461846224600F053FA2D1A67EB01084E
:1016A0004F4622460120002100F04AFA17EB0009BC
:1016B0004E41201EA4F10104DFDC484631462A4693
:1016C0004346BDE8F09F0029A8BF7047401C490071
:1016D00008BF20F00100704710B4B0FA80FC00FA97
:1016E0000CF050EA010404BF10BC704749B1CCF1C2
:1016F000200421FA04F411FA0CF118BF012121434E
:101700000843A3EB0C01CB1D4FEA00614FEA102008
:1017100042BF002010BC704700EBC35010440029AA
:10172000A4BF10BC7047401C490008BF20F0010056
:1017300010BC704710B5141E73F1000408DA401C89
:1017400041F1000192185B411A4301D120F00100E0
:1017500010BD2DE9F04D92469B4611B1B1FA81F2D0
:1017600002E0B0FA80F22032904600F0E9F9044637
:101770000F4640EA0A0041EA0B0153465A46084325
:1017800013D0114653EA010019D0C8F14002504667
:10179000FFF7B8FD05460E4650465946424600F052
:1017A000CFF9084305D0012004E020463946BDE8C2
:1017B000F08D0020054346EAE0762C4337430A9833
:1017C0006305E40AA0EB08000022FD0A44EA47543E
:1017D0000A3002D500200146E9E7010510196941E8
:1017E000DDE9084500196941BDE8F04DA2E72DE9A2
:1017F000FE4F804681EA0300C00F0C46009021F0A6
:10180000004123F00045B8EB0200A94105D2404653
:10181000214690461C460B46024623F000401043EA
:1018200047D0270DC7F30A00C3F30A510290401AAC
:10183000019040286BDAC3F3130040F4801B00983A
:10184000924620B10023D2EB030A63EB0B0B019805
:101850005946C0F14002504600F072F906460D4666
:1018600050465946019A00F07AF910EB08006141A0
:10187000002487EA115284EAE7731A4340D0009AA1
:1018800062B3019A012A4FEA075215DC001B61EB93
:1018900002014FF0004202EA0752CDE90042001C6B
:1018A00041F5801132462B46FFF753FF03B0BDE8E8
:1018B000F08F40462146F9E7001B61EB0201001C56
:1018C00041F5801300185B412018A2F5001747EB83
:1018D000030140EAD570B6196D4111E06D084FEA79
:1018E000360645EAC0754FEA0752001B61EB02015C
:1018F000001C41F5801149084FEA300000195141A0
:1019000032462B4603B0BDE8F04FFFF713BF0098F7
:10191000012240000023D0EB020263EBE073009849
:1019200021464FEAE074B8EB000061EB0401E9E7FF
:1019300083F000435BE781F0004158E72DE9F04D6B
:1019400081EA030404F0004B21F0004514464FF0F7
:10195000000A23F0004150EA050220D054EA0102B7
:101960001DD0C5F30A570246C5F31303C1F3130094
:10197000C1F30A5640F4801543F48013A7EB060820
:10198000101BD64608F2FD3873EB050002D308F1B0
:10199000010801E092185B41B8F1000F03DA002062
:1019A0000146BDE8F08D00204FF4801106468446C4
:1019B0000EE0171B73EB050705D3121B63EB050342
:1019C00006434CEA010C49084FEA300092185B418B
:1019D00050EA0107EDD152EA030012D082EA040076
:1019E00083EA0501084305D0101BAB4106D2012252
:1019F000002306E000224FF0004302E06FF00102F6
:101A000053101AEB06004CEB085110EB0A0041EBA7
:101A10000B01BDE8F04DFFF78DBE2DE9F04D002321
:101A20001A461B1A8A4103DB00200146BDE8F08DEF
:101A3000C1F30A52C1F3130141F480154FF0000BBA
:101A4000D10702D100186D41521E0027044640F212
:101A5000FF11384601EB620A3E46804602460020EE
:101A60004FF48011FFF74EFCC2197141BB1846EBD1
:101A70000100B4EB030C75EB000C04D3E41A65EB26
:101A8000000517460E46241908F101006D418046F5
:101A90003428E3DDF91946EB0600091BA84103D2FF
:101AA0004FF0FF32134601E0002213461BEB070004
:101AB00046EB0A51BDE8F04DFFF73CBEC1F30A52B8
:101AC000C1F3130140F2FF3341F480119A4202DA6C
:101AD00000200146704740F233439A42A2F233425B
:101AE00002DC5242FFF70EBC00F02AB830B5041EEB
:101AF00071F1000404DB4FF00044404264EB01014B
:101B0000141E73F1000405DB1C464FF000435242E3
:101B100063EB0403994208BF904230BD064C074D69
:101B200006E0E06840F0010394E8070098471034AD
:101B3000AC42F6D3FEF7DEFA1C6A00083C6A0008E5
:101B4000202A04DB203A00FA02F10020704791407D
:101B5000C2F1200320FA03F3194390407047202A72
:101B600006DBCB17203A41FA02F043EAE07306E0C5
:101B700041FA02F3D040C2F12002914008431946D5
:101B80007047000070B5044600688168C943C90702
:101B900017D1816821F00101816000F047FD054601
:101BA0000AE000BF00F042FD401B022804D9206873
:101BB0008068C043C00706D020688068C043C00763
:101BC000F0D0002070BDA06A40F01000A062E06A72
:101BD00040F00100E062012070BD10B50146406A8E
:101BE000826A12F0500F05D0006A026BBDE8104007
:101BF00008461047816A41F4007181620168896872
:101C0000C1F3424107290CD1017B51B9816A21F40A
:101C100080718162816AC90403D4816A41F0010143
:101C2000816200F08BF910BD10B5406A816A41F005
:101C300040018162C16A41F00401C16200F080F993
:101C400010BD10B5406A00F07AF910BDF8B5002655
:101C50000446009600688168C943C9072DD0816891
:101C600041F001018160164816490068B0FBF1F0AF
:101C700000E0401E00900028FBD100F0D7FC054694
:101C800016E000BF00F0D2FC401B022810D92068EB
:101C90008068C043C0070BD0A06A40F01000A0626B
:101CA000E06A40F00100E06284F824600120F8BDA1
:101CB00020688068C043C007E4D10020F8BD000060
:101CC0001400002040420F00FEE7000010B503485A
:101CD00000F094FA02490120087010BD8428002009
:101CE0000000002030B590F840500124AC40C56B96
:101CF0006C60046863604368102B036803D09960CC
:101D00000068C26030BD9A600068C16030BD704735
:101D100072B6FEE72DE9F05FDFF8F4800021DFF80E
:101D2000F4A0A8F80410A8F802100C466FF00E05F5
:101D30006FF0090B0AF500695AF8241008B20F1465
:101D4000FFF721FC0A21FFF789FB2946FFF786FBF5
:101D500006463846FFF717FC0A21FFF77FFB2946A6
:101D6000FFF77CFB0146FFF747FB07463146084675
:101D7000FFF742FB3946FFF7E7FAFFF72EFC02F0C8
:101D8000E7FC5A46FFF7E8FBFFF73AFCB4B3102133
:101D9000FFF764FBFFF70DFC49F82400B8F80420B6
:101DA0004146904202DB8880A8F80240641CB4F5EA
:101DB000007FC1D30C464888FFF7EEFB164E002289
:101DC0003346FFF757FB5D465A46FFF7C5FB024611
:101DD0000B4612A001F09EFF6088FFF7DDFB00229A
:101DE0003346FFF747FB2A46FFF7B6FBBDE8F05F37
:101DF00002460B460FA1114801F09CBF0F21FFF7CF
:101E00002DFBFFF7D6FB0124C9F8000094E7000082
:101E1000000000202010002000407F40B5B1C7B076
:101E2000C9C1CBB8C6B5C2CACEAA20252E33660D0D
:101E30000A000000252E3366000000002028002044
:101E4000F8B50024009490F824202546012A12D0E9
:101E5000012280F824204A681F23072A0DD2066831
:101E6000776B521E02EB820293409F430B689340B4
:101E70001F43776319E00220F8BD06680D2A0AD2D5
:101E8000376BD21F02EB820293409F430B68934053
:101E90001F43376309E0F76A0D3A02EB8202934071
:101EA0009F430B6893401F43F7620A680723066845
:101EB0000A2A0AD3F7680A3A02EB420293409F4388
:101EC0008B6893401F43F76008E0376902EB4202DA
:101ED00093409F438B6893401F4337610A68102AE1
:101EE00001D0112A20D1124B02689A4217D193686F
:101EF0001B0219D4936843F4000393600968102906
:101F000012D10C490C4A0968B1FBF2F101EB8101D5
:101F1000490000E0491E00910029FBD104E0816ADC
:101F200041F020018162012480F824502046F8BD50
:101F3000002401401400002040420F007047704709
:101F4000704700002DE9F0414FF0000704003D46C6
:101F50007ED0A06A002628B9E66284F82460204674
:101F600000F07EF82046FFF70DFEA16A01F0100197
:101F7000014304D0A06A40F01000A06268E0A16AAA
:101F800021F4885141F00201A1626268E169237B7A
:101F90000A4347EA43010A43A1684FF48077B942F4
:101FA00008D0012906D0002194F814C0BCF1010F1B
:101FB00002D00AE03946F7E7F3B1A36A43F0200301
:101FC000A362E36A43F00103E3622368D3F804C029
:101FD0002CF4694C4CEA010CC3F804C023689968DE
:101FE000DFF870C001EA0C0111439960A168B942A1
:101FF0000BD0012909D00CE0DFF85CC0A3690CEB21
:1020000043330B4343F40061DFE7218A0D05A5F557
:1020100080152168CB6A23F470032B43CB622168BF
:1020200089680E4B1940914208D1E662A16A21F0FD
:10203000020141F00101A162BDE8F081A06A20F037
:10204000020040F01000A062E06A40F00100E0628F
:102050000120F1E7FDF7E1FF00E0FFFFFE0E1FFFAB
:1020600070B586B00025064600950195029503954A
:1020700000681A4988422ED11949886940F40070D5
:102080008861886900F400700490886940F0040059
:1020900088618869694600F004000490012000907E
:1020A000032001900F4800F0CBF9104C0E48C4E912
:1020B00000058020C4E9025040002061800060617A
:1020C0002020C4E90605204600F042F908B1FFF7D8
:1020D0001FFE3462666206B070BD0000002401403D
:1020E000001002400008014008000240842800203F
:1020F0002DE9F047894604463B4900683B4F0E1DD9
:102100009046884201D0B84207D1306810F4702F51
:1021100003D001252846BDE8F08794F82400012863
:102120000CD0012084F824002046FFF78FFD050025
:102130004FF0000004D084F82400EBE70220EAE727
:10214000A16A40F60162914341F48071A162216865
:10215000B94218D1326812F4702F14D0A16A41F438
:102160008011A1623168490505D5A16A21F40051A9
:1021700041F48051A162A16AC9040AD5E16A21F043
:102180000601E16206E0A26A22F48012A2624968B6
:10219000E9E7E06284F82400216A15488862216A30
:1021A0001448C862216A1448086321686FF002006D
:1021B00008602068816841F480718160216843462D
:1021C0004A464C31206A00F0F1F820688168C1F37A
:1021D00042410729816803D041F48011816099E769
:1021E00041F4A001FAE7000000240140002801406A
:1021F000DB1B0008431C0008291C00082DE9F05FC8
:10220000C16B0C6801680B68D0F840C0042202FA68
:102210000CF2494DDFF824A1494E4A4FDFF828B1AE
:10222000DFF828E122422CD05A072AD50A68920604
:1022300003D40A6822F004020A600168A94201D1AD
:10224000042219E0514501D1402215E0B14202D1EA
:102250004FF4806210E0B94202D14FF480420BE0AB
:10226000594502D14FF4802206E0714502D14FF466
:10227000800201E04FF080622F4908394A60C16A4C
:102280003BE04FF0020808FA0CF818EA040F4FF090
:1022900000094FF0010235D05FEA837832D50B6830
:1022A0009B0605D40B6823F00A030B6080F82120FD
:1022B0000168A94201D1022219E0514501D1202231
:1022C00015E0B14202D14FF4007210E0B94202D1E0
:1022D0004FF400520BE0594502D14FF4003206E0B2
:1022E000714502D14FF4001201E04FF00072124923
:1022F00008394A6080F82090816A00291AD0BDE828
:10230000F05F0847082505FA0CF5254212D01B0797
:1023100010D50B6823F00E030B6090F84010C36BD0
:1023200002FA01F15960826380F8212080F8209040
:10233000016BE2E7BDE8F09F080002401C0002408C
:102340003000024044000240580002406C0002404D
:1023500030B528B308C8134914221944B1FBF2F16F
:102360008900C16310498163022141771A6843F6ED
:10237000F0718A43D0E900142143D0E902452C438F
:102380002143046921434469214384692143114362
:10239000196000214163012242770177084630BD70
:1023A000012030BDF8FFFDBF0000024070B50446BB
:1023B00090F82000002501280CD0012084F820008E
:1023C00094F821600020012E06D084F82000022518
:1023D000284670BD022070BD022684F82160A063EB
:1023E0002068066826F0010606602046FFF77AFCA2
:1023F000E06A00282068016802D041F00E0106E082
:1024000021F0040101602068016841F00A010160C7
:102410002068016841F001010160D9E770B5044608
:1024200000F004F90546601C02D00448007804441A
:1024300000F0FCF8401BA042FAD370BD0800002059
:102440002DE9F84FDFF8B8910024A9F1040B2346D9
:102450000F2709F1040AABF1040EC9E00125A540DC
:102460002A40AA427DD1674ED1F804C0ACEB0608E1
:10247000B44532D014DCBCF1030F3AD009DCBCF116
:10248000000F2AD0BCF1010F1CD0BCF1020F31D1DA
:102490001DE0BCF1110F17D0BCF1120F2AD119E0C9
:1024A000B8F5881F19D006DCB8F5803F15D0B8F50F
:1024B000801F1FD111E0B8F5001F0ED0B8F5041F22
:1024C00018D10AE0CB6815E0CB681B1D12E0CB6881
:1024D00008330FE0CB680C330CE08B682BB1012B79
:1024E0004FF0080303D0456104E0042302E00561D6
:1024F00000E00023FF2A01D8064601E000F10406AF
:102500004FEA840501D9A5F12005D6F8008007FA25
:1025100005FC28EA0C0803FA05F548EA0508C6F8A0
:1025200000804D68ED0062D5374DAE6946F001067A
:10253000AE61AD6924F0030605F001050095334D49
:1025400006EB050CDCF80850A607360F07FA06F86C
:1025500025EA0805DFF8B880404503D14FF00008B0
:1025600017E044E0DFF8AC80404502D14FF00108AD
:102570000FE0DFF8A480404502D14FF0020808E0E8
:10258000DFF89880404502D14FF0030801E04FF09A
:10259000040808FA06F848EA0508CCF808804D68EF
:1025A000D9F80060ED024D4601D5164300E0964390
:1025B0002E604D68DAF80060AD02554601D516432D
:1025C00000E096432E604D68DBF80060AD035D4689
:1025D00001D5164300E096432E604D68DEF800609A
:1025E000ED03754601D5164300E096432E60641C4A
:1025F0000D682A46E5407FF431AFBDE8F88F000052
:1026000008040140000011100010024000000140C9
:1026100000080140000C014000100140001401407E
:102620000AB1016170470904FBE7000001488068B6
:1026300070470000080000200248816802781144B9
:102640008160704708000020074810B5016841F01C
:1026500010010160032000F075F80F2000F006F86B
:1026600000F024F8002010BD0020024070B50D4D90
:1026700004464FF47A712878B1FBF0F00A490968F2
:10268000B1FBF0F000F097FC48B9102C07D2002203
:102690002146501E00F036F800206C6070BD01200D
:1026A00070BD000008000020140000200C4808B590
:1026B000816941F001018161816901F001010091AD
:1026C000C16941F08051C161C06900F08050009043
:1026D0000448416821F0E06141F00071416008BDAB
:1026E0000010024000000140002809DB00F01F023A
:1026F000012191404009800000F1E020C0F8001164
:1027000070470000F0B40E4B1B680C46C3F3022365
:10271000C3F10705042D00D90425191D072901D28D
:10272000002300E0DB1E012606FA05F1491E2140C8
:1027300099409E40761E16403143F0BC01F00EBB1E
:102740000CED00E0064900F0070208684FF6FF03B1
:10275000184040EA0220034A104308607047000016
:102760000CED00E00000FA052DE9F843054600787D
:10277000354CC00754D0E0690026C00008D4E06999
:1027800040F08050E061E069012600F08050009048
:102790002E480168C90512D40168804641F4807151
:1027A0000160FFF743FF074605E000BFFFF73EFF6C
:1027B000C01B642823D8D8F80000C005F6D5206ACD
:1027C00010F4407021D0A98801F4407181421CD0DE
:1027D000206A1F49012220F440700A6000220A602A
:1027E0002062C00711D0FFF721FF074641F2883869
:1027F00008E000BFFFF71AFFC11B414502D90320C3
:10280000BDE8F883206A8007F4D5206A696820F45F
:102810004070084320621EB1E06920F08050E06102
:102820002878800705D56068A96820F440400843EF
:1028300060602878C00605D56068E96820F48000EB
:10284000084360600020DBE7001002400070004099
:10285000400442422DE9F0470F46050061D0434E47
:10286000306800F00700B84209D2306820F0070055
:1028700038433060306800F00700B84251D1286812
:102880003B4C810712D5400703D5606840F4E060F7
:1028900060602878000703D5606840F4605060608D
:1028A0006068A96820F0F000084360602878C007DD
:1028B00028D06868012810D02168022810D0890724
:1028C00000292EDA616821F0030101436160FFF7FE
:1028D000ADFE804641F288390DE021688903EFE7BB
:1028E0008901EDE7FFF7A2FEA0EB0801494502D9F7
:1028F0000320BDE8F0876068696800F00C00B0EB69
:10290000810FEFD1306800F00700B8420BD9306872
:1029100020F0070038433060306800F00700B8420C
:1029200001D00120E5E72878400705D56068E9680F
:1029300020F4E060084360602878000706D56068EE
:10294000296920F4605040EAC100606000F038F866
:102950006168084AC1F30311515CC8400649086028
:1029600006480068FFF782FE0020C2E70020024010
:1029700000100240046A0008140000200C0000202F
:102980000448054900684968044AC1F30221515CC2
:10299000C84070471400002000100240146A00086C
:1029A0000448054900684968044AC1F3C221515CE2
:1029B000C84070471400002000100240146A00084C
:1029C0000E4A51680E4801F00C03042B11D0082B5D
:1029D0000FD10C48C1F38343C903C05C0AD55168C9
:1029E000084AC1F34041921E515C054A5043B0FB76
:1029F000F1F070470449484370470000001002405E
:102A000000127A00F469000800093D002DE9F84F32
:102A1000040070D02078C04DC00749D06868C0F36A
:102A20008100012807D06868C0F38100022809D11D
:102A30006868C00306D52868800339D56068002817
:102A4000E7D035E06068B0F5803F0BD010B1B0F54D
:102A5000A02F11D0286820F480302860286820F446
:102A6000802002E0286840F480302860606890B1DF
:102A7000FFF7DCFD06460AE0286840F48020286065
:102A8000F0E700BFFFF7D2FD801B642873D82868E9
:102A90008003F7D50CE0FFF7C9FD064605E000BF4F
:102AA000FFF7C4FD801B6428F0D828688003F7D4A2
:102AB00020789A4E80074FF001094FF0000839D571
:102AC000686810F00C0F07D06868C0F38100022816
:102AD00009D16868C00306D42868800714D5206926
:102AE000012808D110E02069B0B1C6F80090FFF7C6
:102AF0009DFD074605E00AE1FFF798FDC01B02288F
:102B0000C4D828688007F7D52868616920F0F800E4
:102B100040EAC10028600DE0C6F80080FFF786FD9E
:102B2000074604E0FFF782FDC01B022823D828686F
:102B30008007F7D4207800072CD57948A169D9B14E
:102B4000C0F80090FFF772FD074604E0FFF76EFD46
:102B5000C01B02280FD8686A8007F7D571484FF468
:102B6000FA510068B0FBF1F0009000BF0098411EE0
:102B70000091FAD20EE080E0C0F80080FFF756FD29
:102B8000074604E0FFF752FDC01B022875D8686AAB
:102B90008007F7D42078400760D5E8690027C00097
:102BA00008D4E86940F08050E861E869012700F046
:102BB000805000905C480168C90513D401688346C1
:102BC00041F480710160FFF731FD824606E000BFED
:102BD000FFF72CFDA0EB0A0064284ED8DBF80000BC
:102BE000C005F5D5E06801280AD008B1052813D042
:102BF000286A20F001002862286A20F0040002E020
:102C0000286A40F001002862E06841F2883B98B1F0
:102C1000FFF70CFD82460BE0286A40F004002862B2
:102C2000EEE700BFFFF702FDA0EB0A0159455AD8B5
:102C3000286A8007F6D50CE0FFF7F8FC824605E02D
:102C4000FFF7F4FCA0EB0A0159454CD8286A80072D
:102C5000F6D41FB1E86920F08050E861E06988B3DC
:102C60006968C1F38101022944D00228C6F8608056
:102C700004D0FFF7DBFC044638E034E0FFF7D6FC75
:102C8000074604E0FFF7D2FCC01B02282BD82868B7
:102C90008001F7D4206AB0F5803F05D16868A1684B
:102CA00020F4003008436860D4E9080108436968EB
:102CB00021F4741108436860C6F86090FFF7B6FC11
:102CC000044606E025E000BFFFF7B0FC001B022829
:102CD00009D828688001F7D51BE000BFFFF7A6FCE4
:102CE000001B022802D90320BDE8F88F2868800164
:102CF000F4D40EE00128F7D06868226A00F480312D
:102D0000914204D1616A00F47010884201D0012020
:102D1000EAE70020E8E7000000100240000042421D
:102D200080044242140000200070004070B504008E
:102D300009D0606A002540B125616561A56294F8FB
:102D4000510040B10CE0012070BD6068B0F5827F99
:102D5000F4D0E561F2E784F85050204600F040F8E6
:102D6000022084F851002068016821F040010160D0
:102D7000A088218900F4827001F404410843A189EC
:102D800001F400610843217C01F002010843217D28
:102D900001F001010843218B01F400710843217FF8
:102DA00001F03801084394F8201001F08001084335
:102DB000218D01F40051084321680860A0690421B5
:102DC00001EA1040216848602068C16921F400616F
:102DD000C1616565012084F85100002070BD0000CC
:102DE00030B585B0002400940194029403940068E7
:102DF0001449884223D11448816941F4805181618A
:102E0000816901F480510491816941F0040181617B
:102E100080690E4D00F004000490A0200090022074
:102E200001900320039069462846FFF709FB4020E4
:102E3000CDE90004694628460294FFF701FB05B07E
:102E400030BD000000300140001002400008014089
:102E50002DE9F84F984616468A460446FFF7E6FBEA
:102E6000814694F8510001281ED1BAF1000F73D0A9
:102E7000002E71D094F85000012815D0012784F855
:102E80005070032084F8510000256565C4F830A017
:102E9000A686E686A563A587E58765642564A068A0
:102EA000B0F5004F03D00CE00220BDE8F88F206899
:102EB000016821F0400101602068016841F480410F
:102EC000016020680168490603D4016841F04001AF
:102ED0000160E068B0F5006F606803D048B3012E70
:102EE00027D047E008B1012E1FD1206B2168008850
:102EF000C86006E020688168890709D5216B0988C8
:102F0000C160206B801C2063E08E401EE0860CE0D8
:102F1000FFF78CFBA0EB0901414503D3B8F1FF3F5C
:102F200003D035E0B8F1000F32D0E08E0028E1D1B7
:102F300023E0206B21680078087306E02068816830
:102F400089070AD5216B09780173206B401C206327
:102F5000E08E401EE0860DE02BE0FFF767FBA0EB64
:102F60000901414503D3B8F1FF3F03D010E0B8F1A8
:102F7000000F0DD0E08E0028E0D14A4641462046A1
:102F800000F0E3FC08B120206065A06830B109E0E2
:102F900084F8517084F85050032086E72068C16897
:102FA0008068009084F8517004F8505F60680028D1
:102FB000F3D0012079E710B5401EB0F1807F01D336
:102FC000012010BD4FF0E02460610F21601700F078
:102FD000C5FE0020A06107202061002010BD000078
:102FE00070B590F83C20012A26D0012480F83C409E
:102FF000022280F83D2003685A689D6822F070061E
:103000000A6832435A600D4B02689A4208D0B2F106
:10301000804F05D00A4B9A4202D00A4B9A4204D103
:10302000496825F080031943916080F83D400021F4
:1030300080F83C10084670BD022070BD002C014095
:10304000000400400008004010B5040003D094F8CC
:103050003D0010B107E0012010BD002084F83C00C5
:10306000204600F01FF8022084F83D00211D206852
:1030700000F022FD012084F8460084F83E0084F828
:103080003F0084F8400084F8410084F8420084F84E
:10309000430084F8440084F8450084F83D00002093
:1030A00010BD000008B500680649884208D10648EE
:1030B000C16941F00201C161C06900F002000090E5
:1030C00008BD0000000400400010024090F83D10D0
:1030D000012901D001207047022180F83D100068CD
:1030E0000B49884208D0B0F1804F05D00949884289
:1030F00002D00949884204D1816801F007010629FC
:1031000003D0016841F00101016000207047000018
:10311000002C0140000400400008004070B5044647
:1031200090F83C000025012817D0012684F83C6067
:10313000022084F83D002068826822F0770222F4A1
:103140007F4282600868502838D00DDC20284FD09C
:1031500005DC90B3102811D14AE0022070BD302860
:1031600046D040280AD13BE060282FD070280DD0EF
:10317000B0F5805F03D0B0F5005F12D0012584F870
:103180003D60002084F83C00284670BDCB68D1E942
:103190000121206800F0CCFC2068816841F07701B3
:1031A00009E0CB68D1E90121206800F0C1FC20686A
:1031B000816841F480418160E1E719E0CA684968AB
:1031C000206800F0C7FC5021206806E0CA68496802
:1031D000206800F0D0FC6021206800F0B3FCCEE74E
:1031E000CA684968206800F0B5FC40212068F4E70F
:1031F000226801461046F0E770B5040004D094F848
:103200004100002510B106E0012070BD84F8405057
:10321000204600F023F8242084F841002068C1688B
:1032200021F40051C160204600F0DEFC20680169F5
:1032300021F4904101612068416921F02A01416136
:103240002068C16841F40051C1606564202084F8A1
:10325000410084F842006563002070BD30B585B040
:103260000024009401940294039400681449884255
:1032700024D11448816941F480418161816901F45C
:1032800080410491816941F00401816180690E4DA2
:1032900000F0040004904FF40070009002200190B0
:1032A0000320039069462846FFF7CAF82815CDE9A0
:1032B0000004694628460294FFF7C2F805B030BD05
:1032C0000038014000100240000801402DE9F84399
:1032D000044690F84100984616460D46202802D034
:1032E0000220BDE8F88385B17EB100206064212012
:1032F00084F84100FFF79AF9A6848146E684A06825
:103300002027B0F5805F02D003E00120E9E72069C3
:1033100010B12E4600250EE000260CE0802120464C
:1033200000F0BEFCA8B9C6B116F8010B21684860D0
:10333000E08C401EE084E08C4B464FF00002CDF85C
:1033400000800028EAD14FF04001204600F0A8FCA0
:1033500040B184F841700320C3E735F8020BC0F395
:103360000800E3E784F841700020BAE7FEE72DE9A2
:10337000F04107461C4615460E462A2000F0CAF9C1
:10338000BF1CB8B200F0BBF9AD1CA8B200F0B7F991
:103390002B2000F0BFF9F61CB0B200F0B0F9E41C2D
:1033A000A0B200F0ACF9BDE8F0412C2000F0B2B9B9
:1033B00010B514460B460246FFF7D9FF2046BDE87C
:1033C000104000F09CB92DE9F04780461F46581E7A
:1033D00083B21646501E82B20C464046DDF820905D
:1033E000FFF7C5FF0AE0454604E0484600F087F9CC
:1033F0006D1CADB2B542F8D3641CA4B2BC42F2D38A
:10340000BDE8F08710B57E4C002204212046FFF76E
:1034100007F96420FFF702F8012204212046FFF794
:10342000FFF86420FEF7FAFF012202212046FFF791
:10343000F7F86420FEF7F2FF112000F06BF9782016
:10344000FEF7ECFFB12000F065F9022000F076F9FC
:10345000352000F073F9362000F070F9B22000F04A
:1034600059F9022000F06AF9352000F067F936209A
:1034700000F064F9B32000F04DF9022000F05EF98D
:10348000352000F05BF9362000F058F9022000F0FA
:1034900055F9352000F052F9362000F04FF9B420EC
:1034A00000F038F9032000F049F9C02000F032F9AB
:1034B000A22000F043F9022000F040F9842000F03F
:1034C0003DF9C12000F026F9C52000F037F9C220EF
:1034D00000F020F90D2000F031F9002000F02EF965
:1034E000C32000F017F98D2000F028F92A2000F001
:1034F00025F9C42000F00EF98D2000F01FF9EE2010
:1035000000F01CF9C52000F005F90A2000F016F9BA
:10351000362000F0FFF8C82000F010F9E02000F09D
:10352000F9F8122000F00AF91C2000F007F9102029
:1035300000F004F9182000F001F9332000F0FEF843
:103540002C2000F0FBF8252000F0F8F8282000F0EF
:10355000F5F8282000F0F2F8272000F0EFF82F20EF
:1035600000F0ECF83C2000F0E9F8002000F0E6F86C
:10357000032000F0E3F8032000F0E0F8102000F052
:10358000DDF8E12000F0C6F8122000F0D7F81C208A
:1035900000F0D4F8102000F0D1F8182000F0CEF898
:1035A0002D2000F0CBF8282000F0C8F8232000F0F0
:1035B000C5F8282000F0C2F8282000F0BFF8262027
:1035C00000F0BCF82F2000F0B9F83B2000F0B6F86E
:1035D000002000F0B3F8032000F0B0F8032000F062
:1035E000ADF8102000F0AAF83A2000F093F805207A
:1035F00000F0A4F8BDE81040292000F08BB80000CE
:10360000000801402DE9FF4F81B00446DDE90F7B42
:103610004FEA570800904FEAD80000FB07FA203A1B
:10362000D0B20390029802993844401E83B204EB52
:103630000800401E82B22046FFF799FE002637E0C0
:10364000102F24D0202F35D11C49039801EB801076
:103650005FF0000510F80690BBF1000F4FF001007D
:1036600000FA05F000EA090016D020B12046049ABD
:103670000299FFF79DFE641C0098A4B2211A4145EF
:1036800010D10298009C401C80B202900EE00C49C0
:10369000039801EB0010DBE708B1049800E00E98F6
:1036A00000F02DF86D1CEDB2082DD5D3761CB6B206
:1036B0005645C5D305B0BDE8F08F00008C4D00081D
:1036C0009C4700082DE9FE4F9946DDE90D67144639
:1036D0008A460546DDF830800CE0CDF800804B4688
:1036E00051462846CDE90167FFF78CFF05EB5600F0
:1036F00085B2641C2278002AEFD1BDE8FE8F10B598
:103700000446000A00F01AF8E0B2BDE8104000F0EC
:1037100015B8000070B5084C054600220821204667
:10372000FEF77EFF284600F009F82046BDE870400D
:1037300001220821FEF774BF0008014031B5094C91
:10374000002210212046FEF76BFF4FF47A7301220E
:1037500069460548FFF77CFB012210212046FEF751
:103760005FFF38BD00080140C82800203EB5002496
:1037700011480094019402940E498460016004731E
:103780000475012505614FF400214460C161FEF715
:10379000D9FB08B1FEF7BCFA05200094CDE9015031
:1037A00069460548FEF74CFB002801D0FEF7B0FA49
:1037B0003EBD00000024014054280020094808B5FF
:1037C000416941F0010141614069002200F00100BE
:1037D000009011460B20FEF795FFBDE808400B2036
:1037E000FEF782BF0010024010B586B000200090A6
:1037F0000190029003901648816941F010018161A7
:10380000816901F010010491816941F02001816119
:10381000816901F020010491816941F00401816115
:1038200080690C4C00F00400049001221E21204607
:10383000FEF7F6FE1E200121CDE900010320CDE9AF
:10384000021069462046FEF7FBFD06B010BD0000E1
:103850000010024000080140104810B50E490160F8
:103860004FF48271416000218160C1604FF40072A9
:103870000161C0E905120822C0E9072141628162A5
:103880000A21C162FFF752FA002803D0BDE81040B8
:10389000FEF73EBA10BD000000300140C8280020ED
:1038A00010B586B000241848009401940294039443
:1038B00004941449059401604721C0E901144FF4B0
:1038C000FA61C0E9031480218161FFF7BDFB08B1F3
:1038D000FEF71EFA4FF48050009069460A48FFF741
:1038E0001DFC08B1FEF714FA2020CDE9040404A958
:1038F0000548FFF775FB002801D0FEF709FA06B06E
:1039000010BD000000040040202900200C4810B524
:103910000A4901604FF4E1314160002181600C22CD
:10392000C160C0E904128161C161FFF765FC002834
:1039300003D0BDE81040FEF7EBB910BD00380140E0
:1039400068290020FEE7FEE77047F8B515460E46E9
:103950000B46009204460122022100F011F840B902
:103960003346002280212046009500F009F8002807
:1039700004D0606D40F0200060650320F8BD0000B9
:103980002DE9F8431E46914688460446089DFEF7F9
:103990004DFE401B351AFEF749FE074625480068D4
:1039A000C0F3CB30684338E0701C37D0FEF73EFEE2
:1039B000C01BA84203D215B1009860B32CE0206868
:1039C000416821F0E00141606068B0F5827F0BD171
:1039D000A068B0F5004F02D0B0F5806F04D1206828
:1039E000016821F040010160A06AB0F5005F09D1D3
:1039F0002068016821F4005101602068016841F4E9
:103A000000510160012084F85100002084F850002A
:103A10000320BDE8F8830025401E009020688168DF
:103A200038EA010004D000214945BDD10020F0E76B
:103A30000121F9E7140000207047FEF7FDBD30B505
:103A400093B028216846FDF774FC14210AA8FDF7FD
:103A500070FC002501200F95109511950104129519
:103A60008DE8230004904FF4E010CDE90810022403
:103A700007946846FEF7CAFF08B172B6FEE70AA9C6
:103A80000F2081E831004FF48060CDE90D0502215F
:103A90000AA8FEF7DFFE08B172B6FEE74FF4004059
:103AA00011900F940FA8FEF75FFE002801D072B6A8
:103AB000FEE713B030BD7047F0B50268194B1A4CE1
:103AC0001A4D4FF08047984205D0B84203D0A0422B
:103AD00001D0A84203D122F070064A6832439842CE
:103AE00005D0B84203D0A04201D0A84203D122F4AD
:103AF0004074CA6822434C6922F08002224302606B
:103B00008A68C2620A688262984201D109690163C7
:103B1000012141610169C90703D0016921F0010157
:103B20000161F0BD002C014000040040000800408D
:103B300010B5846842EA032224F47F440A432243F6
:103B4000826010BD826822F070020A4342F00701D1
:103B50008160704710B5036A046A24F001040462AE
:103B6000846924F0F00444EA021423F00A020A43B0
:103B70008461026210BD10B5036A046A24F0100467
:103B80000462846923F0A00324F4704444EA0232FE
:103B900043EA01118261016210BD01680C3151E8F4
:103BA000002F22F4907241E80023002BF5D1016828
:103BB000143151E8002F22F0010241E80023002BCC
:103BC000F5D1016B012909D101680C3151E8002FB1
:103BD00022F0100241E80023002BF5D1202180F8CB
:103BE000421000210163704770B504460068016906
:103BF000E26821F44051114301612169A068084342
:103C0000616908432168CA6841F20C639A43024320
:103C1000CA6020684169A26921F440711143416181
:103C20001E492068884202D1FEF7BAFE01E0FEF785
:103C3000A7FE00EBC00101EB001260686421800068
:103C4000B2FBF0F3B3FBF1F36FF018067343B2FB72
:103C5000F0F5B2FBF0F605EB8305322303EB051517
:103C6000B5FBF1F5B6FBF1F605F0F00505EB061531
:103C7000B2FBF0F6B2FBF0F0B0FBF1F06FF018021F
:103C8000504306EB800003EB0010B0FBF1F021681D
:103C900000F00F002844886070BD0000003801402B
:103CA0002DE9F843984617460D460446089E24E041
:103CB000701C22D0FEF7BAFCA0EB0800B0421AD864
:103CC000CEB12068C168490717D5802D15D0402D89
:103CD00013D00168C94309070FD401680025406863
:103CE00000902046FFF759FF0820606484F8405098
:103CF0000120BDE8F8830320FBE72068006835EA6F
:103D0000000004D00020B842D2D00020F1E701200A
:103D1000F9E7FEE70FB4054B10B503A9044A029872
:103D200000F0F4F810BC5DF814FB000045460008F4
:103D3000180000200FB4084B10B504A902AA03987C
:103D400000F0E4F8044602A9002000F076FC2046CA
:103D500010BC5DF814FB00003B4600080907090E83
:103D6000002804DB00F1E02080F80014704700F028
:103D70000F0000F1E02080F8141D704702E008C831
:103D8000121F08C1002AFAD170477047002001E0D5
:103D900001C1121F002AFBD17047000001490860D1
:103DA000704700001C0000202DE9FF5FDDE90220C4
:103DB000010DDDF838B0024318D044F61050A1F2DE
:103DC000FF3141430D140F98012820D0A5EB0B00C3
:103DD000401C5FEA000A4FF00004474EDFF81C91D8
:103DE000A046504616D5CAF1000728E00F980124D6
:103DF00043A2012808D0002100980F9BC0E90021B0
:103E0000C0E90243BDE8FF9F6FEA0B01F4E7CBF185
:103E10000000DEE7074612E0F80707D022463346E7
:103E200040464946FDF726FB8046894622463346F2
:103E300010461946FDF71EFB04460E467F10002F64
:103E4000EAD1DDE90201BAF1000F42464B4602DA3F
:103E5000FDF710FB01E0FDF771FD04460E46002260
:103E6000284BFDF743FE03D84FF0FF30014607E033
:103E70000022254B20463146FDF7B9FCFDF71EFE1A
:103E8000102409E0002C0ADB0A220023FDF7EAFBDC
:103E9000019B30321A55641E50EA0102F2D1641CB3
:103EA000019AC4F1110314440F9A012A03D001228C
:103EB00008430DD10AE0084304D000204FF0110B55
:103EC0000F9080E7A3EB0B056D1E0DE05B4504DD55
:103ED0004FF0000205F1010504E003DA4FF00002A3
:103EE000A5F10105002AECD000980F99C0E9023134
:103EF000C0E9004586E70000000024400000F03FD4
:103F0000300000000000F0430000E03F2DE9FF4FCB
:103F100095B09B468946064600250FE2252877D1B5
:103F200000242746F84A0121059400E0044316F8CE
:103F3000013F203B01FA03F01042F7D130782A28E4
:103F400011D06FF02F033078A0F13002092A16D873
:103F5000059A44F0020402EB820203EB4202104491
:103F6000761C0590EFE759F8042B0592002A03DA36
:103F7000504244F40054059044F00204761C30781A
:103F80002E2816D116F8010F44F004042A280DD06B
:103F90006FF02F023078A0F13003092B09D807EB1E
:103FA000870302EB4303C718761CF3E759F8047B39
:103FB000761C30786C280FD006DC4C2817D0682887
:103FC0000DD06A2814D104E0742810D07A280FD1BB
:103FD0000DE044F400140AE044F4801401E044F4D9
:103FE00040147278824202D104F58014761C761C4B
:103FF000307866280BD013DC582877D009DC0028ED
:1040000075D04528F6D04628F4D047281AD19DE12E
:1040100018E0632835D0642879D0652812D195E15D
:10402000702873D008DC6728F1D069286FD06E281B
:104030000DD06F2806D1B5E073282CD0752875D027
:10404000782874D05A46179990476D1C75E1C4F3CF
:104050000250022809D003280DD0D9F800100428F6
:104060000DD00D6009F1040967E1D9F80010EA17D5
:10407000C1E90052F6E7D9F800100D80F2E70D70A3
:10408000F0E719F8041B8DF8001000208DF80100EE
:10409000EA46012003E059F804AB4FF0FF30610716
:1040A0004FF0000102D40DE008F101018846B94249
:1040B0000FDA8045F8DB1AF808100029F4D108E07F
:1040C00008F1010188468142FADB1AF8081000293C
:1040D000F6D105985B46A0EB080721463846179AAB
:1040E00000F094FA284400EB080507E04DE029E1D0
:1040F0000DE01AF8010B5A4617999047B8F10108DC
:10410000F7D25B4621463846179A13E142E00A226D
:104110000092C4F302524FF0000A022A08D059F864
:1041200004CB032A4FEAEC710AD00DE029E02AE023
:1041300009F1070121F00702F2E802C1914609E006
:104140000FFA8CFC4FEAEC71042A03D14FFA8CFC75
:104150004FEAEC71002907DA0A460021DCF1000C75
:1041600061EB02012D2202E0220504D52B228DF8FD
:104170000420012203E0E20701D02022F7E7904665
:1041800059E00A2102E010220DE010214FF0000A50
:1041900000910BE010224FF0000A44F004040827BD
:1041A000009203E008224FF0000A0092C4F302528A
:1041B000022A05D059F804CB0021032A08D009E0CF
:1041C00009F1070121F00702F2E802C1914605E07A
:1041D0001FFA8CFC042A01D10CF0FF0C4FF00008F0
:1041E000220728D5702806D0009B83F0100353EADD
:1041F0000A0305D00EE040228DF80420012208E0D9
:104200005CEA010206D030228DF804208DF805000A
:1042100002229046009B83F0080353EA0A030AD166
:104220005CEA010201D1620705D530228DF8042035
:104230004FF001087F1E582804D034A003900EA828
:1042400002900DE036A0F9E753466046009AFDF76C
:1042500009FA84460398825C0298401E029002701C
:104260005CEA0100F0D1029806A9081A00F1200AC0
:10427000600702D524F4803400E00127574502DDB1
:10428000A7EB0A0000E0002000EB0A01009005986F
:104290004144401A0590E00306D45B462146179A34
:1042A000059800F0B3F90544002706E001A85A4636
:1042B000C05D179990476D1C7F1C4745F6DBE003F6
:1042C0000CD55B462146179A059800F09FF90544E6
:1042D00004E030205A46179990476D1C0099481EFB
:1042E00000900029F5DC08E0029802995A4600780F
:1042F000491C0291179990476D1CBAF10001AAF16F
:10430000010AF1DC65E10000092801003031323397
:104310003435363738396162636465660000000001
:1043200030313233343536373839414243444546EB
:104330000000000000F058F90544761C3078002891
:104340007FF4ECAD19B02846BDE8F08F620700D4C9
:10435000062709F1070222F0070CFCE80223E146D8
:1043600003F000485FEA080C02D00FF2702C0DE059
:104370005FEA045C02D50FF2682C07E05FEAC47CB8
:1043800002D00FF2602C01E0AFF2700C4FF0FF385A
:1043900023F00043CDF850C065280CD006DC45283A
:1043A00009D046281DD047283DD13DE0662818D0C9
:1043B00067287ED138E00021112F01DB112000E0B9
:1043C000781CCDE9000106A90EA8FFF7EDFCDDE998
:1043D0000F010E9A03910021009207F1010A049146
:1043E0004DE04FF000400097CDE9011006A90EA85E
:1043F000FFF7DAFCDDE90F0203920E9B1199002210
:10440000DDF80CA00093049211B9791C00EB010AAD
:10441000B7EB0A0004D4C0F1FF3007F1010A0490A1
:10442000AAEB0700019044E0012F00DA01270021E8
:10443000112F01DD112000E03846CDE9000106A969
:104440000EA8FFF7B1FCDDE90F010E9A03910021E0
:1044500004910092BA4621070CD40399514500DA21
:104460008A46BAF1010F05DD009AAAF10101515CFB
:10447000302908D0B84202DA10F1040F06DA01211F
:10448000CDE9011015E0AAF10101E9E7002805DCFA
:10449000049901440491AAEB000102E0411C51453A
:1044A00000DD8A460499401A401C01904FF00040FC
:1044B0000290200704D40198504501DBCDF8048018
:1044C00000208DF84F0002980DF14F07B0F1004F1A
:1044D00025D02B200E9002984FF0020800280CDA0D
:1044E000404202902D200E9007E00A210298FDF72D
:1044F000A3F83031029007F8011DB8F10001A8F1CE
:104500000108F2DC02980028EFD1791E0E9808709D
:10451000307800F0200040F0450007F8020D12A8A6
:10452000C01B00F107081498007800B1012000EBCF
:104530000A01019801EBE07105984144401A401EC0
:104540000590E00306D45B462146179A059800F0D3
:104550005DF805441498007818B15A4617999047A9
:104560006D1CE00324D55B462146179A059800F0A0
:104570004DF805441CE00498002807DBDDE9030141
:10458000884203DD0098405C179901E017993020BC
:104590005A469047049805F10105401C0490019883
:1045A000401E019004D12E205A46179990476D1C49
:1045B000BAF10001AAF1010ADDDC05E017F8010BF0
:1045C0005A46179990476D1CB8F10001A8F10108EF
:1045D000F4DC5B462146179A0598ABE62D000000F7
:1045E0002B000000200000002DE9F04104460025CA
:1045F0001E461746880404D405E039462020B047FB
:104600006D1C641EF9D52846BDE8F0812DE9F04106
:10461000044600251E469046C80301D5302700E019
:104620002027880404D505E041463846B0476D1C74
:10463000641EF9D52846BDE8F0810A68531C0B605A
:104640001070704713B54FF0FF33012269460248DE
:10465000FEF73CFE00981CBD682900200EB5FDF752
:10466000F3FFFFF7ECF9FFF7BFF8FFF74FF9FFF79C
:10467000A5F8FFF77BF8FFF713F9FFF7EDF82748E8
:10468000FEF724FD4FF48068424625492548FDF792
:104690002FFD25A0FFF73EFBFEF7B4FE4FF6FF759A
:1046A000802300211A4608460095FEF78CFEDFF8AD
:1046B00088900024484699F800100029FAD0047028
:1046C000174B0020A3F500514FEA080233F81060A1
:1046D000A6F50066360441F82060401C80B2904286
:1046E000F4D3164901F58050FBF71CFDFDF712FBD2
:1046F00010260095CDE901644FF478473B4610A29F
:1047000014210A20FEF7DEFF0095CDE901643B4647
:104710000E4A46213220FEF7D5FFCBE720290020A4
:104720002020002054280020737461727420746566
:1047300073740D0A0000000000000020200000201B
:104740005374696D204672657100000020280020B6
:104750002DE9F04106460F46FDF75FF9041E0D46B0
:1047600018BF0120284320F00040C0F17F6000F115
:10477000E040C00F0ED0301C18BF0120384320F09D
:104780000040C0F17F6000F1E040C00F04BF012095
:10479000FFF704FB20462946BDE8F0810000000039
:1047A0000000000000000000000000000000000801
:1047B00008080808080800001818000000486C24C1
:1047C00012000000000000000000000000000024B3
:1047D00024247F1212127F12121200000000081C03
:1047E0002A2A0A0C1828282A2A1C08080000002255
:1047F000251515152A585454542200000000000CA9
:104800001212120A76252911916E00000006060484
:104810000300000000000000000000000040201025
:1048200010080808080808101020400000020408BA
:1048300008101010101010080804020000000000FA
:1048400008086B1C1C6B080800000000000000003A
:10485000080808087F080808080000000000000099
:104860000000000000000000060604030000000035
:1048700000000000FE00000000000000000000003A
:10488000000000000000000006060000000080405C
:104890004020201010080804040202000000001844
:1048A00024424242424242422418000000000008D2
:1048B0000E08080808080808083E00000000003C30
:1048C0004242422020100804427E00000000003CCA
:1048D0004242201820404042221C000000000020DC
:1048E0003028242422227E20207800000000007E30
:1048F0000202021A26404042221C0000000000383A
:104900002402021A26424242241800000000007EBF
:104910002222101008080808080800000000003CC7
:104920004242422418244242423C00000000001847
:104930002442424264584040241C00000000000011
:104940000000181800000000181800000000000007
:1049500000000008000000000008080400000040FB
:10496000201008040204081020400000000000008D
:1049700000007F0000007F00000000000000000237
:104980000408102040201008040200000000003C31
:104990004242464020101000181800000000001C81
:1049A000225A555555552D42221C00000000000882
:1049B00008181414243C224242E700000000001FA3
:1049C0002222221E22424242221F00000000007CBE
:1049D0004242010101010142221C00000000001FAF
:1049E0002242424242424242221F00000000003F57
:1049F0004212121E12120242423F00000000003F0B
:104A00004212121E12120202020700000000003CB5
:104A10002222010101712122221C0000000000E776
:104A2000424242427E42424242E700000000003ED3
:104A30000808080808080808083E00000000007C74
:104A400010101010101010101010110F000000772F
:104A500022120A0E0A12122222770000000000071A
:104A60000202020202020202427F000000000077FE
:104A7000363636362A2A2A2A2A6B0000000000E33E
:104A800046464A4A52525262624700000000001CE9
:104A90002241414141414141221C00000000003FB0
:104AA000424242423E020202020700000000001C95
:104AB0002241414141414D53321C60000000003F02
:104AC0004242423E1212222242C700000000007CF5
:104AD0004242020418204042423E00000000007F93
:104AE0004908080808080808081C0000000000E73A
:104AF0004242424242424242423C0000000000E741
:104B00004242222424141418080800000000006BFC
:104B1000494949495555362222220000000000E744
:104B2000422424181818242442E7000000000077CB
:104B30002222141408080808081C00000000007E47
:104B40002120101008040442423F000000780808A9
:104B50000808080808080808080878000000020289
:104B6000040408080810102020204040001E1010E7
:104B7000101010101010101010101E0000384400FB
:104B80000000000000000000000000000000000025
:104B90000000000000000000000000FF0006080008
:104BA0000000000000000000000000000000000005
:104BB0000000003C4278444242FC00000000000338
:104BC0000202021A26424242261A00000000000099
:104BD0000000003844020202443800000000006077
:104BE000404040784442424264D800000000000047
:104BF0000000003C427E0202423C0000000000F047
:104C00008808087E08080808083E00000000000028
:104C10000000007C22221C023C42423C00000003B7
:104C20000202023A4642424242E700000000000C03
:104C30000C00000E08080808083E000000000030C4
:104C400030000038202020202020221E00000003F9
:104C500002020272120A1612227700000000000EF1
:104C60000808080808080808083E000000000000BE
:104C70000000007F9292929292B700000000000024
:104C80000000003B4642424242E7000000000000B4
:104C90000000003C42424242423C00000000000052
:104CA0000000001B26424242221E020700000000B4
:104CB0000000007844424242447840E00000000096
:104CC000000000774C040404041F000000000000F2
:104CD0000000007C42023C40423E00000000000018
:104CE0000008083E0808080808300000000000001E
:104CF000000000634242424262DC0000000000000B
:104D0000000000E74224241408080000000000000E
:104D1000000000EB49495555222200000000000028
:104D20000000007624181818246E0000000000000F
:104D3000000000E7422424141808080700000000BF
:104D40000000007E22100808447E000000C02020E1
:104D500020202010202020202020C0001010101023
:104D6000101010101010101010101010000608086D
:104D70000808081008080808080806000C32C200D5
:104D80000000000000000000000000000000000023
:104D90000000000000000000000000000000000013
:104DA0000000000000000000000000000000000003
:104DB00000000000000000000000000000000000F3
:104DC00000000000000000000000000000000000E3
:104DD000000000000000C001C001C001C001C0010E
:104DE000C001C00180008000800080008000800041
:104DF000800000000000000000008001C003C0032C
:104E00008001000000000000000000000000000021
:104E10000000E01CE01CF01E700E380718030801AB
:104E200084000000000000000000000000000000FE
:104E30000000000000000000000000000000000072
:104E40000000000000000000000000000000000062
:104E50000000000000000000201020102010201092
:104E60002010FE7FFE7F10081008100810081008A0
:104E700010081008FE7FFE7F0804080408040804D8
:104E80000804000000000000000000000000000016
:104E90000000000000010001C00760191031183146
:104EA0001839183938017001E001C0038007000F7C
:104EB000001D003900311C311C310C310C11180D52
:104EC000E0070001000100010000000000000000F8
:104ED00000000000000000001C1036186308630C7E
:104EE00063046304630263026301361D9C378022FE
:104EF0008063406340632063206330631022183670
:104F0000081C00000000000000000000000000007D
:104F10000000000000000000F00098018C018C01EE
:104F20008C018C018C00CC007800183E1C083608DF
:104F3000320863046304C304C303834306438E2619
:104F4000781C0000000000000000000000000000CD
:104F500000001C003C003C003000300010000C0041
:104F6000060000000000000000000000000000003B
:104F70000000000000000000000000000000000031
:104F80000000000000000000000000000000000021
:104F900000000040002000100008000C0004000683
:104FA0000003000300038001800180018001800173
:104FB0008001800180010003000300030006000659
:104FC000000C00080010002000400000000000005D
:104FD0000000020004000800100030002000600003
:104FE000C000C000C00080018001800180018001FC
:104FF000800180018001C000C000C000600060002E
:105000003000100008000400020000000000000052
:10501000000000000000000000000000000180030C
:10502000800300011C713C79783DC0070001C00776
:10503000783D3C791C7100018003800380010000F1
:105040000000000000000000000000000000000060
:10505000000000000000000000000000000000014F
:10506000000100010001000100010001FC7F0001BE
:10507000000100010001000100010001000000002A
:105080000000000000000000000000000000000020
:105090000000000000000000000000000000000010
:1050A0000000000000000000000000000000000000
:1050B0000000000000000000000000001C003C0098
:1050C0003C003000300010000C0006000000000022
:1050D00000000000000000000000000000000000D0
:1050E000000000000000000000000000FE7F000043
:1050F00000000000000000000000000000000000B0
:10510000000000000000000000000000000000009F
:10511000000000000000000000000000000000008F
:10512000000000000000000000000000000000007F
:105130000000000000000000000018003C003C00DF
:105140001800000000000000000000000000000047
:10515000000000400060002000300010001800082F
:10516000000C000400060002000300018001800022
:10517000C00040006000200030001000180008004F
:105180000C00040006000200000000000000000007
:105190000000000000000000C007600C301818304C
:1051A000183018200C600C600C600C600C600C60F7
:1051B0000C600C600C601820183018303018600C2F
:1051C000C007000000000000000000000000000018
:1051D000000000000000000000018001F8018001D3
:1051E00080018001800180018001800180018001B7
:1051F0008001800180018001800180018001C00365
:10520000F81F000000000000000000000000000087
:105210000000000000000000E007101C0818043027
:1052200004300C300C30003000180008000400027C
:105230000001800040002020102008200430FC1FC6
:10524000FC1F000000000000000000000000000043
:105250000000000000000000E003180E0C0C0C1809
:105260000C180C180018000C0006C003000E0018E3
:105270000010003000300C300C300C100C18180CE2
:10528000E00300000000000000000000000000003B
:105290000000000000000000000C000E000E000FD7
:1052A000800E800E400E600E200E100E100E080EA6
:1052B000040E040EFE7F000E000E000E000E000E07
:1052C000000EC07F00000000000000000000000091
:1052D0000000000000000000F03FF03F1000100050
:1052E000100008000800C807280C18180810003023
:1052F0000030003000300C300C3004180418080C5A
:10530000F0030000000000000000000000000000AA
:105310000000000000000000800FC010203010309E
:105320001800180008000C008C0F6C183C301C6032
:105330000C600C600C600C60186018203030601835
:10534000C007000000000000000000000000000096
:105350000000000000000000F83FF83F1C100C089F
:10536000040804040004000200020001000100011E
:10537000800080008000C000C000C000C000C000ED
:10538000C00000000000000000000000000000005D
:105390000000000000000000E007300C18180C307E
:1053A0000C300C301C3038187008E007B007180EAD
:1053B0000C1C063806300630063006300C18180C67
:1053C000E0030000000000000000000000000000FA
:1053D0000000000000000000E00318040C080C1896
:1053E0000610063006300630063006380C3C1836FB
:1053F000F03100300018001800180C0C0C060C03DB
:10540000F0010000000000000000000000000000AB
:10541000000000000000000000000000000000008C
:105420000000000000008001C003C00380010000F4
:10543000000000000000000000008001C003C00365
:1054400080010000000000000000000000000000DB
:10545000000000000000000000000000000000004C
:10546000000000000000C000C000000000000000BC
:105470000000000000000000000000000000C0006C
:10548000C0008000800040004000000000000000DC
:1054900000000000000000200010000800040006CA
:1054A00000038001C0006000300018000C001800EC
:1054B00030006000C0008001000300060004000806
:1054C00000100020000000000000000000000000AC
:1054D00000000000000000000000000000000000CC
:1054E000000000000000FE7F00000000000000003F
:1054F0000000FE7F0000000000000000000000002F
:10550000000000000000000000000000000000009B
:1055100000000000000004000800100020006000EF
:10552000C000800100030006000C001800300018C5
:10553000000C000600038001C00060002000100085
:10554000080004000000000000000000000000004F
:10555000000000000000C0073018083008600C6030
:105560001C601C601C600030001C000600018000F4
:10557000800080008000000000008001C003C003A4
:10558000800100000000000000000000000000009A
:105590000000000000000000C00760181030182054
:1055A0000C2F8C4D864CC64CC64C664C66446644EB
:1055B000662666266615CC1C0C400820183030186C
:1055C000C007000000000000000000000000000014
:1055D0000000000000000001C001C001C001400146
:1055E0006003200320032003300610061006100677
:1055F000F80F080C080C080C0C0C041804180618FA
:105600001F7C0000000000000000000000000000FF
:105610000000000000000000FE07181C18381830B9
:105620001830183018301818180CF80718181830D7
:105630001820186018601860186018601830181862
:10564000FE0F00000000000000000000000000004D
:105650000000000000000000C02760381030182053
:105660000C400C4004000600060006000600060080
:105670000600060006000C400C400C2018303018C4
:10568000C007000000000000000000000000000053
:105690000000000000000000FE03180E181818306B
:1056A000183018301860186018601860186018609A
:1056B0001860186018601830183018101818180E74
:1056C000FE030000000000000000000000000000D9
:1056D0000000000000000000FE3F18301820186095
:1056E0001840180018081808180CF80F180C18089B
:1056F0001808180018001800184018401820183012
:10570000FE3F00000000000000000000000000005C
:105710000000000000000000FE7F1870184018C054
:1057200018801800181018101818F81F18181810DA
:105730001810180018001800180018001800180099
:105740007E000000000000000000000000000000DB
:105750000000000000000000C013701C10101810A2
:105760000C200C20040006000600060006000600BF
:1057700006FC063006300C300C301830183030087B
:10578000C007000000000000000000000000000052
:1057900000000000000000003F7E0C180C180C18E0
:1057A0000C180C180C180C180C180C18FC1F0C18E2
:1057B0000C180C180C180C180C180C180C180C18C9
:1057C0003F7E00000000000000000000000000001C
:1057D0000000000000000000F81F8001800180012F
:1057E00080018001800180018001800180018001B1
:1057F00080018001800180018001800180018001A1
:10580000F81F000000000000000000000000000081
:105810000000000000000000E07F00060006000617
:105820000006000600060006000600060006000648
:105830000006000600060006000600060006000638
:10584000000600060E060E038E01FC00000000009C
:1058500000000000000000007E7C181818081804E2
:1058600018061802180198019801D801B8033803E6
:1058700018071806180E180C181C181818301830AD
:105880007EFC00000000000000000000000000009E
:1058900000000000000000007E0018001800180042
:1058A0001800180018001800180018001800180038
:1058B0001800180018001800184018401820183058
:1058C000FE3F00000000000000000000000000009B
:1058D00000000000000000001FF81C381C381C38B5
:1058E0001C3C3434343434343436743264326432EC
:1058F00064326431C431C431C431C430C430843002
:105900009FFC0000000000000000000000000000FC
:1059100000000000000000001F7C1C103C10341030
:10592000341074106410E410C410C4118411841372
:10593000041304170416041E041C041C041C04187D
:105940001F18000000000000000000000000000020
:105950000000000000000000C003300C1818081000
:105960000C300C300660066006600660066006605B
:105970000660066006600C200C3008101818300C09
:10598000C003000000000000000000000000000054
:105990000000000000000000FE0F1818183018600A
:1059A000186018601860186018301818F80F180080
:1059B0001800180018001800180018001800180027
:1059C0007E00000000000000000000000000000059
:1059D0000000000000000000C003300C18180C107C
:1059E0000C300C20066006600660066006600660EB
:1059F000066006600660E4612C331C321816300E17
:105A0000C007004C007C00380000000000000000CF
:105A10000000000000000000FE07181C18381830B5
:105A20001830183018301818180CF8079803180395
:105A3000180718061806180E180C180C181C181839
:105A40007E78000000000000000000000000000060
:105A50000000000000000000E027303818300C2063
:105A60000C200C000C0018007800E003800F001ED2
:105A70000038007000600460046008601830381856
:105A8000C80F00000000000000000000000000003F
:105A90000000000000000000FC3F8C218461824176
:105AA00082418001800180018001800180018001AC
:105AB00080018001800180018001800180018001DE
:105AC000E0070000000000000000000000000000EF
:105AD00000000000000000003F7C0C100C100C10B7
